{
  "address": "0x3eCb67Dc73C10513A295b95053Ad891bD48b3080",
  "abi": [
    {
      "anonymous": false,
      "inputs": [
        {
          "indexed": true,
          "internalType": "address",
          "name": "participator",
          "type": "address"
        },
        {
          "indexed": true,
          "internalType": "uint256",
          "name": "optionId",
          "type": "uint256"
        }
      ],
      "name": "Exercise",
      "type": "event"
    },
    {
      "anonymous": false,
      "inputs": [
        {
          "indexed": false,
          "internalType": "uint256",
          "name": "optionId",
          "type": "uint256"
        },
        {
          "indexed": false,
          "internalType": "bool",
          "name": "isListed",
          "type": "bool"
        }
      ],
      "name": "Listed",
      "type": "event"
    },
    {
      "anonymous": false,
      "inputs": [
        {
          "indexed": true,
          "internalType": "address",
          "name": "initiator",
          "type": "address"
        },
        {
          "indexed": true,
          "internalType": "uint256",
          "name": "optionId",
          "type": "uint256"
        },
        {
          "indexed": false,
          "internalType": "bool",
          "name": "setted",
          "type": "bool"
        }
      ],
      "name": "Offer",
      "type": "event"
    },
    {
      "anonymous": false,
      "inputs": [
        {
          "indexed": true,
          "internalType": "address",
          "name": "participator",
          "type": "address"
        },
        {
          "indexed": true,
          "internalType": "uint256",
          "name": "optionId",
          "type": "uint256"
        }
      ],
      "name": "Participate",
      "type": "event"
    },
    {
      "anonymous": false,
      "inputs": [
        {
          "indexed": true,
          "internalType": "address",
          "name": "from",
          "type": "address"
        },
        {
          "indexed": true,
          "internalType": "address",
          "name": "to",
          "type": "address"
        },
        {
          "indexed": true,
          "internalType": "uint256",
          "name": "optionId",
          "type": "uint256"
        }
      ],
      "name": "Transfer",
      "type": "event"
    },
    {
      "anonymous": false,
      "inputs": [
        {
          "indexed": false,
          "internalType": "address",
          "name": "asset",
          "type": "address"
        },
        {
          "indexed": false,
          "internalType": "address",
          "name": "to",
          "type": "address"
        },
        {
          "indexed": false,
          "internalType": "uint256",
          "name": "amount",
          "type": "uint256"
        }
      ],
      "name": "Withdraw",
      "type": "event"
    },
    {
      "anonymous": false,
      "inputs": [
        {
          "indexed": false,
          "internalType": "address",
          "name": "to",
          "type": "address"
        },
        {
          "indexed": false,
          "internalType": "uint256",
          "name": "optionId",
          "type": "uint256"
        },
        {
          "indexed": false,
          "internalType": "uint256",
          "name": "amount",
          "type": "uint256"
        }
      ],
      "name": "WithdrawCA",
      "type": "event"
    },
    {
      "anonymous": false,
      "inputs": [
        {
          "indexed": false,
          "internalType": "address",
          "name": "to",
          "type": "address"
        },
        {
          "indexed": false,
          "internalType": "uint256",
          "name": "optionId",
          "type": "uint256"
        },
        {
          "indexed": false,
          "internalType": "uint256",
          "name": "amount",
          "type": "uint256"
        }
      ],
      "name": "WithdrawColleteral",
      "type": "event"
    },
    {
      "anonymous": false,
      "inputs": [
        {
          "indexed": false,
          "internalType": "address",
          "name": "to",
          "type": "address"
        },
        {
          "indexed": false,
          "internalType": "uint256",
          "name": "optionId",
          "type": "uint256"
        },
        {
          "indexed": false,
          "internalType": "uint256",
          "name": "amount",
          "type": "uint256"
        }
      ],
      "name": "WithdrawPremium",
      "type": "event"
    },
    {
      "inputs": [
        {
          "internalType": "uint256",
          "name": "optionId",
          "type": "uint256"
        }
      ],
      "name": "buyOption",
      "outputs": [],
      "stateMutability": "nonpayable",
      "type": "function"
    },
    {
      "inputs": [
        {
          "internalType": "bytes",
          "name": "checkData",
          "type": "bytes"
        }
      ],
      "name": "checkUpkeep",
      "outputs": [
        {
          "internalType": "bool",
          "name": "upkeepNeeded",
          "type": "bool"
        },
        {
          "internalType": "bytes",
          "name": "performData",
          "type": "bytes"
        }
      ],
      "stateMutability": "view",
      "type": "function"
    },
    {
      "inputs": [
        {
          "internalType": "uint256",
          "name": "optionId",
          "type": "uint256"
        }
      ],
      "name": "delistOption",
      "outputs": [],
      "stateMutability": "nonpayable",
      "type": "function"
    },
    {
      "inputs": [
        {
          "internalType": "uint256",
          "name": "optionId",
          "type": "uint256"
        }
      ],
      "name": "exerciseOption",
      "outputs": [],
      "stateMutability": "nonpayable",
      "type": "function"
    },
    {
      "inputs": [
        {
          "internalType": "uint256",
          "name": "optionId",
          "type": "uint256"
        },
        {
          "internalType": "address",
          "name": "asset",
          "type": "address"
        },
        {
          "internalType": "uint256",
          "name": "amount",
          "type": "uint256"
        }
      ],
      "name": "listOption",
      "outputs": [],
      "stateMutability": "nonpayable",
      "type": "function"
    },
    {
      "inputs": [
        {
          "internalType": "address",
          "name": "colleteral",
          "type": "address"
        },
        {
          "internalType": "address",
          "name": "counterAsset",
          "type": "address"
        },
        {
          "internalType": "address",
          "name": "premiumAsset",
          "type": "address"
        },
        {
          "internalType": "uint256",
          "name": "amountOfColleteral",
          "type": "uint256"
        },
        {
          "internalType": "uint256",
          "name": "amountOfCA",
          "type": "uint256"
        },
        {
          "internalType": "uint256",
          "name": "premiumAmount",
          "type": "uint256"
        },
        {
          "internalType": "uint256",
          "name": "optionExpiry",
          "type": "uint256"
        },
        {
          "internalType": "uint256",
          "name": "offerEnd",
          "type": "uint256"
        }
      ],
      "name": "offerOption",
      "outputs": [],
      "stateMutability": "nonpayable",
      "type": "function"
    },
    {
      "inputs": [
        {
          "internalType": "uint256",
          "name": "",
          "type": "uint256"
        }
      ],
      "name": "optionDetails",
      "outputs": [
        {
          "internalType": "address",
          "name": "listAsset",
          "type": "address"
        },
        {
          "internalType": "address",
          "name": "priceFeedAddress",
          "type": "address"
        },
        {
          "internalType": "address",
          "name": "poolAddress",
          "type": "address"
        },
        {
          "internalType": "uint256",
          "name": "offerEnd",
          "type": "uint256"
        },
        {
          "internalType": "uint256",
          "name": "optionExpiry",
          "type": "uint256"
        },
        {
          "internalType": "uint256",
          "name": "listAmount",
          "type": "uint256"
        },
        {
          "internalType": "bool",
          "name": "isListed",
          "type": "bool"
        },
        {
          "internalType": "bool",
          "name": "exercised",
          "type": "bool"
        }
      ],
      "stateMutability": "view",
      "type": "function"
    },
    {
      "inputs": [
        {
          "internalType": "uint256",
          "name": "",
          "type": "uint256"
        }
      ],
      "name": "options",
      "outputs": [
        {
          "internalType": "address",
          "name": "initiator",
          "type": "address"
        },
        {
          "internalType": "address",
          "name": "participant",
          "type": "address"
        },
        {
          "internalType": "address",
          "name": "colleteral",
          "type": "address"
        },
        {
          "internalType": "address",
          "name": "counterAsset",
          "type": "address"
        },
        {
          "internalType": "address",
          "name": "premiumAsset",
          "type": "address"
        },
        {
          "internalType": "uint256",
          "name": "amountOfColleteral",
          "type": "uint256"
        },
        {
          "internalType": "uint256",
          "name": "amountOfCA",
          "type": "uint256"
        },
        {
          "internalType": "uint256",
          "name": "premiumAmount",
          "type": "uint256"
        }
      ],
      "stateMutability": "view",
      "type": "function"
    },
    {
      "inputs": [
        {
          "internalType": "uint256",
          "name": "optionId",
          "type": "uint256"
        }
      ],
      "name": "participateOption",
      "outputs": [],
      "stateMutability": "nonpayable",
      "type": "function"
    },
    {
      "inputs": [
        {
          "internalType": "bytes",
          "name": "performData",
          "type": "bytes"
        }
      ],
      "name": "performUpkeep",
      "outputs": [],
      "stateMutability": "nonpayable",
      "type": "function"
    },
    {
      "inputs": [
        {
          "internalType": "uint256",
          "name": "optionId",
          "type": "uint256"
        }
      ],
      "name": "refundColleteral",
      "outputs": [],
      "stateMutability": "nonpayable",
      "type": "function"
    },
    {
      "inputs": [
        {
          "internalType": "uint256",
          "name": "optionId",
          "type": "uint256"
        },
        {
          "internalType": "address",
          "name": "_priceFeedAddress",
          "type": "address"
        }
      ],
      "name": "setPriceFeedAddress",
      "outputs": [],
      "stateMutability": "nonpayable",
      "type": "function"
    },
    {
      "inputs": [
        {
          "internalType": "bytes4",
          "name": "interfaceId",
          "type": "bytes4"
        }
      ],
      "name": "supportsInterface",
      "outputs": [
        {
          "internalType": "bool",
          "name": "",
          "type": "bool"
        }
      ],
      "stateMutability": "view",
      "type": "function"
    },
    {
      "inputs": [
        {
          "internalType": "address",
          "name": "asset",
          "type": "address"
        },
        {
          "internalType": "uint256",
          "name": "amount",
          "type": "uint256"
        }
      ],
      "name": "withdraw",
      "outputs": [],
      "stateMutability": "nonpayable",
      "type": "function"
    },
    {
      "inputs": [
        {
          "internalType": "address",
          "name": "",
          "type": "address"
        },
        {
          "internalType": "address",
          "name": "",
          "type": "address"
        }
      ],
      "name": "withdrawAllowance",
      "outputs": [
        {
          "internalType": "uint256",
          "name": "",
          "type": "uint256"
        }
      ],
      "stateMutability": "view",
      "type": "function"
    },
    {
      "inputs": [
        {
          "internalType": "uint256",
          "name": "optionId",
          "type": "uint256"
        }
      ],
      "name": "withdrawCA",
      "outputs": [],
      "stateMutability": "nonpayable",
      "type": "function"
    },
    {
      "inputs": [
        {
          "internalType": "uint256",
          "name": "optionId",
          "type": "uint256"
        }
      ],
      "name": "withdrawPremium",
      "outputs": [],
      "stateMutability": "nonpayable",
      "type": "function"
    }
  ],
  "transactionHash": "0xcdb3d364bab64cf2ae9d5c68907160453e4dfa3d73a8384bbeef0aa32edc9084",
  "args": [],
  "numDeployments": 2,
  "solcInputHash": "fc8f1493cb5d154494ffc5a573c51002",
  "bytecode": "0x608060405234801561001057600080fd5b50613ca5806100206000396000f3fe608060405234801561001057600080fd5b506004361061010b5760003560e01c806357620cdf116100a2578063b91916a611610071578063b91916a6146102d3578063f3fef3a3146102ef578063f52f25261461030b578063f81cba0514610327578063fba225b9146103435761010b565b806357620cdf1461024e578063605142051461026a5780636e04ff0d146102865780637f8368da146102b75761010b565b806329a2755c116100de57806329a2755c146101c35780633ea73cc7146101df578063409e2205146101fb5780634585e33b146102325761010b565b806301ffc9a714610110578063065170f4146101405780631f01664a14610177578063233ac00814610193575b600080fd5b61012a60048036038101906101259190612bfa565b61035f565b6040516101379190612c42565b60405180910390f35b61015a60048036038101906101559190612c93565b610408565b60405161016e989796959493929190612d10565b60405180910390f35b610191600480360381019061018c9190612c93565b6104ca565b005b6101ad60048036038101906101a89190612dba565b610851565b6040516101ba9190612dfa565b60405180910390f35b6101dd60048036038101906101d89190612c93565b610876565b005b6101f960048036038101906101f49190612e15565b610883565b005b61021560048036038101906102109190612c93565b610984565b604051610229989796959493929190612e55565b60405180910390f35b61024c60048036038101906102479190612f38565b610a6c565b005b61026860048036038101906102639190612c93565b610c84565b005b610284600480360381019061027f9190612c93565b610d5e565b005b6102a0600480360381019061029b9190612f38565b610fed565b6040516102ae92919061301e565b60405180910390f35b6102d160048036038101906102cc919061304e565b611111565b005b6102ed60048036038101906102e89190613104565b6114f8565b005b61030960048036038101906103049190613157565b611816565b005b61032560048036038101906103209190612c93565b611a26565b005b610341600480360381019061033c9190612c93565b611ba7565b005b61035d60048036038101906103589190612c93565b611e68565b005b60006301ffc9a760e01b7bffffffffffffffffffffffffffffffffffffffffffffffffffffffff1916827bffffffffffffffffffffffffffffffffffffffffffffffffffffffff191614806104015750634585e33b60e01b636e04ff0d60e01b187bffffffffffffffffffffffffffffffffffffffffffffffffffffffff1916827bffffffffffffffffffffffffffffffffffffffffffffffffffffffff1916145b9050919050565b60026020528060005260406000206000915090508060000160009054906101000a900473ffffffffffffffffffffffffffffffffffffffff16908060010160009054906101000a900473ffffffffffffffffffffffffffffffffffffffff16908060020160009054906101000a900473ffffffffffffffffffffffffffffffffffffffff16908060030154908060040154908060050154908060060160009054906101000a900460ff16908060060160019054906101000a900460ff16905088565b33816001600082815260200190815260200160002060000160009054906101000a900473ffffffffffffffffffffffffffffffffffffffff1673ffffffffffffffffffffffffffffffffffffffff168273ffffffffffffffffffffffffffffffffffffffff1614610570576040517f08c379a0000000000000000000000000000000000000000000000000000000008152600401610567906131f4565b60405180910390fd5b8260018061062257600073ffffffffffffffffffffffffffffffffffffffff166001600084815260200190815260200160002060010160009054906101000a900473ffffffffffffffffffffffffffffffffffffffff1673ffffffffffffffffffffffffffffffffffffffff161461061d576040517f08c379a000000000000000000000000000000000000000000000000000000000815260040161061490613260565b60405180910390fd5b6106c9565b600073ffffffffffffffffffffffffffffffffffffffff166001600084815260200190815260200160002060010160009054906101000a900473ffffffffffffffffffffffffffffffffffffffff1673ffffffffffffffffffffffffffffffffffffffff1614156106c8576040517f08c379a00000000000000000000000000000000000000000000000000000000081526004016106bf906132cc565b60405180910390fd5b5b6000600160008781526020019081526020016000206007015411610722576040517f08c379a000000000000000000000000000000000000000000000000000000000815260040161071990613338565b60405180910390fd5b600060016000878152602001908152602001600020600701549050600060016000888152602001908152602001600020600701819055506001600087815260200190815260200160002060040160009054906101000a900473ffffffffffffffffffffffffffffffffffffffff1673ffffffffffffffffffffffffffffffffffffffff1663a9059cbb33836040518363ffffffff1660e01b81526004016107ca929190613358565b6020604051808303816000875af11580156107e9573d6000803e3d6000fd5b505050506040513d601f19601f8201168201806040525081019061080d91906133ad565b507f364c50cfd85ef2e44ae41c769b375ca3e4cd21a63f2f593171bdda820f70d1f7338783604051610841939291906133da565b60405180910390a1505050505050565b6003602052816000526040600020602052806000526040600020600091509150505481565b6108803382611f42565b50565b33826001600082815260200190815260200160002060010160009054906101000a900473ffffffffffffffffffffffffffffffffffffffff1673ffffffffffffffffffffffffffffffffffffffff168273ffffffffffffffffffffffffffffffffffffffff1614610929576040517f08c379a00000000000000000000000000000000000000000000000000000000081526004016109209061345d565b60405180910390fd5b826002600086815260200190815260200160002060010160006101000a81548173ffffffffffffffffffffffffffffffffffffffff021916908373ffffffffffffffffffffffffffffffffffffffff16021790555050505050565b60016020528060005260406000206000915090508060000160009054906101000a900473ffffffffffffffffffffffffffffffffffffffff16908060010160009054906101000a900473ffffffffffffffffffffffffffffffffffffffff16908060020160009054906101000a900473ffffffffffffffffffffffffffffffffffffffff16908060030160009054906101000a900473ffffffffffffffffffffffffffffffffffffffff16908060040160009054906101000a900473ffffffffffffffffffffffffffffffffffffffff16908060050154908060060154908060070154905088565b6000808383810190610a7e91906134b3565b9150915060006002600084815260200190815260200160002060010160009054906101000a900473ffffffffffffffffffffffffffffffffffffffff1673ffffffffffffffffffffffffffffffffffffffff1663feaf968c6040518163ffffffff1660e01b815260040160a060405180830381865afa158015610b05573d6000803e3d6000fd5b505050506040513d601f19601f82011682018060405250810190610b29919061355f565b505050915050818113610b71576040517f08c379a0000000000000000000000000000000000000000000000000000000008152600401610b6890613626565b60405180910390fd5b610b7a836120ba565b6001600084815260200190815260200160002060030160009054906101000a900473ffffffffffffffffffffffffffffffffffffffff1673ffffffffffffffffffffffffffffffffffffffff166323b872dd6001600086815260200190815260200160002060010160009054906101000a900473ffffffffffffffffffffffffffffffffffffffff163060016000888152602001908152602001600020600601546040518463ffffffff1660e01b8152600401610c3993929190613646565b6020604051808303816000875af1158015610c58573d6000803e3d6000fd5b505050506040513d601f19601f82011682018060405250810190610c7c91906133ad565b505050505050565b610c8e338261229c565b6001600082815260200190815260200160002060040160009054906101000a900473ffffffffffffffffffffffffffffffffffffffff1673ffffffffffffffffffffffffffffffffffffffff166323b872dd333060016000868152602001908152602001600020600701546040518463ffffffff1660e01b8152600401610d1793929190613646565b6020604051808303816000875af1158015610d36573d6000803e3d6000fd5b505050506040513d601f19601f82011682018060405250810190610d5a91906133ad565b5050565b33816001600082815260200190815260200160002060000160009054906101000a900473ffffffffffffffffffffffffffffffffffffffff1673ffffffffffffffffffffffffffffffffffffffff168273ffffffffffffffffffffffffffffffffffffffff1614610e04576040517f08c379a0000000000000000000000000000000000000000000000000000000008152600401610dfb906131f4565b60405180910390fd5b6002600084815260200190815260200160002060060160019054906101000a900460ff16610e67576040517f08c379a0000000000000000000000000000000000000000000000000000000008152600401610e5e906136c9565b60405180910390fd5b6000600160008581526020019081526020016000206006015411610ec0576040517f08c379a0000000000000000000000000000000000000000000000000000000008152600401610eb790613338565b60405180910390fd5b600060016000858152602001908152602001600020600601549050600060016000868152602001908152602001600020600601819055506001600085815260200190815260200160002060030160009054906101000a900473ffffffffffffffffffffffffffffffffffffffff1673ffffffffffffffffffffffffffffffffffffffff1663a9059cbb33836040518363ffffffff1660e01b8152600401610f68929190613358565b6020604051808303816000875af1158015610f87573d6000803e3d6000fd5b505050506040513d601f19601f82011682018060405250810190610fab91906133ad565b507fd4072f896a83f1975997e4b3c8cc6e44538eafada8b6537b11e77ff1ead2455f338583604051610fdf939291906133da565b60405180910390a150505050565b60006060600080858581019061100391906134b3565b9150915060006002600084815260200190815260200160002060010160009054906101000a900473ffffffffffffffffffffffffffffffffffffffff1673ffffffffffffffffffffffffffffffffffffffff1663feaf968c6040518163ffffffff1660e01b815260040160a060405180830381865afa15801561108a573d6000803e3d6000fd5b505050506040513d601f19601f820116820180604052508101906110ae919061355f565b50505091505081811215878781818080601f016020809104026020016040519081016040528093929190818152602001838380828437600081840152601f19601f8201169050808301925050505050505090509050945094505050509250929050565b87600073ffffffffffffffffffffffffffffffffffffffff168173ffffffffffffffffffffffffffffffffffffffff161415611182576040517f08c379a000000000000000000000000000000000000000000000000000000000815260040161117990613735565b60405180910390fd5b87600073ffffffffffffffffffffffffffffffffffffffff168173ffffffffffffffffffffffffffffffffffffffff1614156111f3576040517f08c379a00000000000000000000000000000000000000000000000000000000081526004016111ea90613735565b60405180910390fd5b87600073ffffffffffffffffffffffffffffffffffffffff168173ffffffffffffffffffffffffffffffffffffffff161415611264576040517f08c379a000000000000000000000000000000000000000000000000000000000815260040161125b90613735565b60405180910390fd5b8a73ffffffffffffffffffffffffffffffffffffffff166323b872dd33308b6040518463ffffffff1660e01b81526004016112a193929190613646565b6020604051808303816000875af11580156112c0573d6000803e3d6000fd5b505050506040513d601f19601f820116820180604052508101906112e491906133ad565b506112ef6000612672565b60006112fb6000612688565b90508b6001600083815260200190815260200160002060020160006101000a81548173ffffffffffffffffffffffffffffffffffffffff021916908373ffffffffffffffffffffffffffffffffffffffff16021790555060006001600083815260200190815260200160002090508b8160030160006101000a81548173ffffffffffffffffffffffffffffffffffffffff021916908373ffffffffffffffffffffffffffffffffffffffff1602179055508a8160040160006101000a81548173ffffffffffffffffffffffffffffffffffffffff021916908373ffffffffffffffffffffffffffffffffffffffff16021790555089816005018190555087816007018190555088816006018190555085426114169190613784565b6002600084815260200190815260200160002060030181905550864261143c9190613784565b6002600084815260200190815260200160002060040181905550338160000160006101000a81548173ffffffffffffffffffffffffffffffffffffffff021916908373ffffffffffffffffffffffffffffffffffffffff160217905550813373ffffffffffffffffffffffffffffffffffffffff167f37dc54e85dbf55ec2e90e3cdd1758d2306604af7b56743fa10d9115fd1e3915960016040516114e19190612c42565b60405180910390a350505050505050505050505050565b33836001600082815260200190815260200160002060010160009054906101000a900473ffffffffffffffffffffffffffffffffffffffff1673ffffffffffffffffffffffffffffffffffffffff168273ffffffffffffffffffffffffffffffffffffffff161461159e576040517f08c379a00000000000000000000000000000000000000000000000000000000081526004016115959061345d565b60405180910390fd5b846000801561160457426002600084815260200190815260200160002060040154106115ff576040517f08c379a00000000000000000000000000000000000000000000000000000000081526004016115f690613826565b60405180910390fd5b61165e565b426002600084815260200190815260200160002060040154101561165d576040517f08c379a000000000000000000000000000000000000000000000000000000000815260040161165490613892565b60405180910390fd5b5b85600073ffffffffffffffffffffffffffffffffffffffff168173ffffffffffffffffffffffffffffffffffffffff1614156116cf576040517f08c379a00000000000000000000000000000000000000000000000000000000081526004016116c690613735565b60405180910390fd5b6002600089815260200190815260200160002060060160019054906101000a900460ff1615611733576040517f08c379a000000000000000000000000000000000000000000000000000000000815260040161172a906138fe565b60405180910390fd5b6001600260008a815260200190815260200160002060060160006101000a81548160ff02191690831515021790555086600260008a815260200190815260200160002060000160006101000a81548173ffffffffffffffffffffffffffffffffffffffff021916908373ffffffffffffffffffffffffffffffffffffffff16021790555085600260008a8152602001908152602001600020600501819055507f7f8b8b68ebd95ed5f82f3fae981c59ed57bcc3f9e43ae3c49a98963ac0f5bf1c88600160405161180492919061391e565b60405180910390a15050505050505050565b80600360008473ffffffffffffffffffffffffffffffffffffffff1673ffffffffffffffffffffffffffffffffffffffff16815260200190815260200160002060003373ffffffffffffffffffffffffffffffffffffffff1673ffffffffffffffffffffffffffffffffffffffff1681526020019081526020016000205410156118d5576040517f08c379a00000000000000000000000000000000000000000000000000000000081526004016118cc90613993565b60405180910390fd5b80600360008473ffffffffffffffffffffffffffffffffffffffff1673ffffffffffffffffffffffffffffffffffffffff16815260200190815260200160002060003373ffffffffffffffffffffffffffffffffffffffff1673ffffffffffffffffffffffffffffffffffffffff168152602001908152602001600020600082825461196191906139b3565b925050819055508173ffffffffffffffffffffffffffffffffffffffff1663a9059cbb33836040518363ffffffff1660e01b81526004016119a3929190613358565b6020604051808303816000875af11580156119c2573d6000803e3d6000fd5b505050506040513d601f19601f820116820180604052508101906119e691906133ad565b507f9b1bfa7fa9ee420a16e124f794c35ac9f90472acc99140eb2f6447c714cad8eb823383604051611a1a93929190613646565b60405180910390a15050565b33816001600082815260200190815260200160002060010160009054906101000a900473ffffffffffffffffffffffffffffffffffffffff1673ffffffffffffffffffffffffffffffffffffffff168273ffffffffffffffffffffffffffffffffffffffff1614611acc576040517f08c379a0000000000000000000000000000000000000000000000000000000008152600401611ac39061345d565b60405180910390fd5b611ad5836120ba565b6001600084815260200190815260200160002060030160009054906101000a900473ffffffffffffffffffffffffffffffffffffffff1673ffffffffffffffffffffffffffffffffffffffff166323b872dd333060016000888152602001908152602001600020600601546040518463ffffffff1660e01b8152600401611b5e93929190613646565b6020604051808303816000875af1158015611b7d573d6000803e3d6000fd5b505050506040513d601f19601f82011682018060405250810190611ba191906133ad565b50505050565b33816001600082815260200190815260200160002060000160009054906101000a900473ffffffffffffffffffffffffffffffffffffffff1673ffffffffffffffffffffffffffffffffffffffff168273ffffffffffffffffffffffffffffffffffffffff1614611c4d576040517f08c379a0000000000000000000000000000000000000000000000000000000008152600401611c44906131f4565b60405180910390fd5b82600080600260008481526020019081526020016000206003015411611ca8576040517f08c379a0000000000000000000000000000000000000000000000000000000008152600401611c9f90613a33565b60405180910390fd5b8015611d0c574260026000848152602001908152602001600020600301541015611d07576040517f08c379a0000000000000000000000000000000000000000000000000000000008152600401611cfe90613a9f565b60405180910390fd5b611d65565b42600260008481526020019081526020016000206003015410611d64576040517f08c379a0000000000000000000000000000000000000000000000000000000008152600401611d5b90613b0b565b60405180910390fd5b5b600073ffffffffffffffffffffffffffffffffffffffff166001600087815260200190815260200160002060010160009054906101000a900473ffffffffffffffffffffffffffffffffffffffff1673ffffffffffffffffffffffffffffffffffffffff161480611e185750426002600087815260200190815260200160002060040154108015611e1757506002600086815260200190815260200160002060060160019054906101000a900460ff16155b5b611e57576040517f08c379a0000000000000000000000000000000000000000000000000000000008152600401611e4e90613b77565b60405180910390fd5b611e613386612696565b5050505050565b611e7233826127c2565b6002600082815260200190815260200160002060000160009054906101000a900473ffffffffffffffffffffffffffffffffffffffff1673ffffffffffffffffffffffffffffffffffffffff166323b872dd333060026000868152602001908152602001600020600501546040518463ffffffff1660e01b8152600401611efb93929190613646565b6020604051808303816000875af1158015611f1a573d6000803e3d6000fd5b505050506040513d601f19601f82011682018060405250810190611f3e91906133ad565b5050565b81816001600082815260200190815260200160002060010160009054906101000a900473ffffffffffffffffffffffffffffffffffffffff1673ffffffffffffffffffffffffffffffffffffffff168273ffffffffffffffffffffffffffffffffffffffff1614611fe8576040517f08c379a0000000000000000000000000000000000000000000000000000000008152600401611fdf9061345d565b60405180910390fd5b6002600084815260200190815260200160002060060160009054906101000a900460ff1661204b576040517f08c379a0000000000000000000000000000000000000000000000000000000008152600401612042906138fe565b60405180910390fd5b60006002600085815260200190815260200160002060060160006101000a81548160ff0219169083151502179055507f7f8b8b68ebd95ed5f82f3fae981c59ed57bcc3f9e43ae3c49a98963ac0f5bf1c8360006040516120ac92919061391e565b60405180910390a150505050565b8060008015612120574260026000848152602001908152602001600020600401541061211b576040517f08c379a000000000000000000000000000000000000000000000000000000000815260040161211290613826565b60405180910390fd5b61217a565b4260026000848152602001908152602001600020600401541015612179576040517f08c379a000000000000000000000000000000000000000000000000000000000815260040161217090613892565b60405180910390fd5b5b60006001600085815260200190815260200160002060010160009054906101000a900473ffffffffffffffffffffffffffffffffffffffff1690506002600085815260200190815260200160002060060160019054906101000a900460ff1615612219576040517f08c379a0000000000000000000000000000000000000000000000000000000008152600401612210906138fe565b60405180910390fd5b60016002600086815260200190815260200160002060060160016101000a81548160ff0219169083151502179055506122528185612696565b838173ffffffffffffffffffffffffffffffffffffffff167f5a20425ee28c08dfaf53c051ce9fb1fdfedad2949379924d3313a74c2c61a2a560405160405180910390a350505050565b80600073ffffffffffffffffffffffffffffffffffffffff166001600083815260200190815260200160002060020160009054906101000a900473ffffffffffffffffffffffffffffffffffffffff1673ffffffffffffffffffffffffffffffffffffffff161415612343576040517f08c379a000000000000000000000000000000000000000000000000000000000815260040161233a90613be3565b60405180910390fd5b816000806123f557600073ffffffffffffffffffffffffffffffffffffffff166001600084815260200190815260200160002060010160009054906101000a900473ffffffffffffffffffffffffffffffffffffffff1673ffffffffffffffffffffffffffffffffffffffff16146123f0576040517f08c379a00000000000000000000000000000000000000000000000000000000081526004016123e790613260565b60405180910390fd5b61249c565b600073ffffffffffffffffffffffffffffffffffffffff166001600084815260200190815260200160002060010160009054906101000a900473ffffffffffffffffffffffffffffffffffffffff1673ffffffffffffffffffffffffffffffffffffffff16141561249b576040517f08c379a0000000000000000000000000000000000000000000000000000000008152600401612492906132cc565b60405180910390fd5b5b83600160006002600084815260200190815260200160002060030154116124f8576040517f08c379a00000000000000000000000000000000000000000000000000000000081526004016124ef90613a33565b60405180910390fd5b801561255c574260026000848152602001908152602001600020600301541015612557576040517f08c379a000000000000000000000000000000000000000000000000000000000815260040161254e90613a9f565b60405180910390fd5b6125b5565b426002600084815260200190815260200160002060030154106125b4576040517f08c379a00000000000000000000000000000000000000000000000000000000081526004016125ab90613b0b565b60405180910390fd5b5b866001600088815260200190815260200160002060010160006101000a81548173ffffffffffffffffffffffffffffffffffffffff021916908373ffffffffffffffffffffffffffffffffffffffff160217905550426002600088815260200190815260200160002060030181905550858773ffffffffffffffffffffffffffffffffffffffff167feb353a6084f42c4569f7fe0e62ec9a9a107f0453a8f76735dd47ef68dcfcce3f60405160405180910390a350505050505050565b6001816000016000828254019250508190555050565b600081600001549050919050565b600060016000838152602001908152602001600020600501549050600060016000848152602001908152602001600020600501819055506001600083815260200190815260200160002060020160009054906101000a900473ffffffffffffffffffffffffffffffffffffffff1673ffffffffffffffffffffffffffffffffffffffff1663a9059cbb84836040518363ffffffff1660e01b815260040161273e929190613358565b6020604051808303816000875af115801561275d573d6000803e3d6000fd5b505050506040513d601f19601f8201168201806040525081019061278191906133ad565b507f6349409af923ab04f6ba4cd71740fcf0de9efb3a66822fd753b51741914227cc8383836040516127b5939291906133da565b60405180910390a1505050565b80600073ffffffffffffffffffffffffffffffffffffffff166001600083815260200190815260200160002060020160009054906101000a900473ffffffffffffffffffffffffffffffffffffffff1673ffffffffffffffffffffffffffffffffffffffff161415612869576040517f08c379a000000000000000000000000000000000000000000000000000000000815260040161286090613be3565b60405180910390fd5b81600080156128cf57426002600084815260200190815260200160002060040154106128ca576040517f08c379a00000000000000000000000000000000000000000000000000000000081526004016128c190613826565b60405180910390fd5b612929565b4260026000848152602001908152602001600020600401541015612928576040517f08c379a000000000000000000000000000000000000000000000000000000000815260040161291f90613892565b60405180910390fd5b5b6002600085815260200190815260200160002060060160009054906101000a900460ff1661298c576040517f08c379a000000000000000000000000000000000000000000000000000000000815260040161298390613c4f565b60405180910390fd5b6002600085815260200190815260200160002060050154600360006002600088815260200190815260200160002060000160009054906101000a900473ffffffffffffffffffffffffffffffffffffffff1673ffffffffffffffffffffffffffffffffffffffff1673ffffffffffffffffffffffffffffffffffffffff16815260200190815260200160002060006001600088815260200190815260200160002060010160009054906101000a900473ffffffffffffffffffffffffffffffffffffffff1673ffffffffffffffffffffffffffffffffffffffff1673ffffffffffffffffffffffffffffffffffffffff1681526020019081526020016000206000828254612a9a9190613784565b92505081905550838573ffffffffffffffffffffffffffffffffffffffff166001600087815260200190815260200160002060010160009054906101000a900473ffffffffffffffffffffffffffffffffffffffff1673ffffffffffffffffffffffffffffffffffffffff167fddf252ad1be2c89b69c2b068fc378daa952ba7f163c4a11628f55a4df523b3ef60405160405180910390a4846001600086815260200190815260200160002060010160006101000a81548173ffffffffffffffffffffffffffffffffffffffff021916908373ffffffffffffffffffffffffffffffffffffffff160217905550612b918585611f42565b5050505050565b600080fd5b600080fd5b60007fffffffff0000000000000000000000000000000000000000000000000000000082169050919050565b612bd781612ba2565b8114612be257600080fd5b50565b600081359050612bf481612bce565b92915050565b600060208284031215612c1057612c0f612b98565b5b6000612c1e84828501612be5565b91505092915050565b60008115159050919050565b612c3c81612c27565b82525050565b6000602082019050612c576000830184612c33565b92915050565b6000819050919050565b612c7081612c5d565b8114612c7b57600080fd5b50565b600081359050612c8d81612c67565b92915050565b600060208284031215612ca957612ca8612b98565b5b6000612cb784828501612c7e565b91505092915050565b600073ffffffffffffffffffffffffffffffffffffffff82169050919050565b6000612ceb82612cc0565b9050919050565b612cfb81612ce0565b82525050565b612d0a81612c5d565b82525050565b600061010082019050612d26600083018b612cf2565b612d33602083018a612cf2565b612d406040830189612cf2565b612d4d6060830188612d01565b612d5a6080830187612d01565b612d6760a0830186612d01565b612d7460c0830185612c33565b612d8160e0830184612c33565b9998505050505050505050565b612d9781612ce0565b8114612da257600080fd5b50565b600081359050612db481612d8e565b92915050565b60008060408385031215612dd157612dd0612b98565b5b6000612ddf85828601612da5565b9250506020612df085828601612da5565b9150509250929050565b6000602082019050612e0f6000830184612d01565b92915050565b60008060408385031215612e2c57612e2b612b98565b5b6000612e3a85828601612c7e565b9250506020612e4b85828601612da5565b9150509250929050565b600061010082019050612e6b600083018b612cf2565b612e78602083018a612cf2565b612e856040830189612cf2565b612e926060830188612cf2565b612e9f6080830187612cf2565b612eac60a0830186612d01565b612eb960c0830185612d01565b612ec660e0830184612d01565b9998505050505050505050565b600080fd5b600080fd5b600080fd5b60008083601f840112612ef857612ef7612ed3565b5b8235905067ffffffffffffffff811115612f1557612f14612ed8565b5b602083019150836001820283011115612f3157612f30612edd565b5b9250929050565b60008060208385031215612f4f57612f4e612b98565b5b600083013567ffffffffffffffff811115612f6d57612f6c612b9d565b5b612f7985828601612ee2565b92509250509250929050565b600081519050919050565b600082825260208201905092915050565b60005b83811015612fbf578082015181840152602081019050612fa4565b83811115612fce576000848401525b50505050565b6000601f19601f8301169050919050565b6000612ff082612f85565b612ffa8185612f90565b935061300a818560208601612fa1565b61301381612fd4565b840191505092915050565b60006040820190506130336000830185612c33565b81810360208301526130458184612fe5565b90509392505050565b600080600080600080600080610100898b03121561306f5761306e612b98565b5b600061307d8b828c01612da5565b985050602061308e8b828c01612da5565b975050604061309f8b828c01612da5565b96505060606130b08b828c01612c7e565b95505060806130c18b828c01612c7e565b94505060a06130d28b828c01612c7e565b93505060c06130e38b828c01612c7e565b92505060e06130f48b828c01612c7e565b9150509295985092959890939650565b60008060006060848603121561311d5761311c612b98565b5b600061312b86828701612c7e565b935050602061313c86828701612da5565b925050604061314d86828701612c7e565b9150509250925092565b6000806040838503121561316e5761316d612b98565b5b600061317c85828601612da5565b925050602061318d85828601612c7e565b9150509250929050565b600082825260208201905092915050565b7f4432000000000000000000000000000000000000000000000000000000000000600082015250565b60006131de600283613197565b91506131e9826131a8565b602082019050919050565b6000602082019050818103600083015261320d816131d1565b9050919050565b7f4431330000000000000000000000000000000000000000000000000000000000600082015250565b600061324a600383613197565b915061325582613214565b602082019050919050565b600060208201905081810360008301526132798161323d565b9050919050565b7f4431320000000000000000000000000000000000000000000000000000000000600082015250565b60006132b6600383613197565b91506132c182613280565b602082019050919050565b600060208201905081810360008301526132e5816132a9565b9050919050565b7f4431310000000000000000000000000000000000000000000000000000000000600082015250565b6000613322600383613197565b915061332d826132ec565b602082019050919050565b6000602082019050818103600083015261335181613315565b9050919050565b600060408201905061336d6000830185612cf2565b61337a6020830184612d01565b9392505050565b61338a81612c27565b811461339557600080fd5b50565b6000815190506133a781613381565b92915050565b6000602082840312156133c3576133c2612b98565b5b60006133d184828501613398565b91505092915050565b60006060820190506133ef6000830186612cf2565b6133fc6020830185612d01565b6134096040830184612d01565b949350505050565b7f4433000000000000000000000000000000000000000000000000000000000000600082015250565b6000613447600283613197565b915061345282613411565b602082019050919050565b600060208201905081810360008301526134768161343a565b9050919050565b6000819050919050565b6134908161347d565b811461349b57600080fd5b50565b6000813590506134ad81613487565b92915050565b600080604083850312156134ca576134c9612b98565b5b60006134d885828601612c7e565b92505060206134e98582860161349e565b9150509250929050565b600069ffffffffffffffffffff82169050919050565b613512816134f3565b811461351d57600080fd5b50565b60008151905061352f81613509565b92915050565b60008151905061354481613487565b92915050565b60008151905061355981612c67565b92915050565b600080600080600060a0868803121561357b5761357a612b98565b5b600061358988828901613520565b955050602061359a88828901613535565b94505060406135ab8882890161354a565b93505060606135bc8882890161354a565b92505060806135cd88828901613520565b9150509295509295909350565b7f4f7074696f6e206973204f544d00000000000000000000000000000000000000600082015250565b6000613610600d83613197565b915061361b826135da565b602082019050919050565b6000602082019050818103600083015261363f81613603565b9050919050565b600060608201905061365b6000830186612cf2565b6136686020830185612cf2565b6136756040830184612d01565b949350505050565b7f4431300000000000000000000000000000000000000000000000000000000000600082015250565b60006136b3600383613197565b91506136be8261367d565b602082019050919050565b600060208201905081810360008301526136e2816136a6565b9050919050565b7f5472616e73616374696f6e20746f206164647265737328302921000000000000600082015250565b600061371f601a83613197565b915061372a826136e9565b602082019050919050565b6000602082019050818103600083015261374e81613712565b9050919050565b7f4e487b7100000000000000000000000000000000000000000000000000000000600052601160045260246000fd5b600061378f82612c5d565b915061379a83612c5d565b9250827fffffffffffffffffffffffffffffffffffffffffffffffffffffffffffffffff038211156137cf576137ce613755565b5b828201905092915050565b7f4438000000000000000000000000000000000000000000000000000000000000600082015250565b6000613810600283613197565b915061381b826137da565b602082019050919050565b6000602082019050818103600083015261383f81613803565b9050919050565b7f4439000000000000000000000000000000000000000000000000000000000000600082015250565b600061387c600283613197565b915061388782613846565b602082019050919050565b600060208201905081810360008301526138ab8161386f565b9050919050565b7f4437000000000000000000000000000000000000000000000000000000000000600082015250565b60006138e8600283613197565b91506138f3826138b2565b602082019050919050565b60006020820190508181036000830152613917816138db565b9050919050565b60006040820190506139336000830185612d01565b6139406020830184612c33565b9392505050565b7f4431350000000000000000000000000000000000000000000000000000000000600082015250565b600061397d600383613197565b915061398882613947565b602082019050919050565b600060208201905081810360008301526139ac81613970565b9050919050565b60006139be82612c5d565b91506139c983612c5d565b9250828210156139dc576139db613755565b5b828203905092915050565b7f4f7074696f6e20706172616d6174657273206e6f742073657474656420796574600082015250565b6000613a1d602083613197565b9150613a28826139e7565b602082019050919050565b60006020820190508181036000830152613a4c81613a10565b9050919050565b7f4f66666572206578706972656400000000000000000000000000000000000000600082015250565b6000613a89600d83613197565b9150613a9482613a53565b602082019050919050565b60006020820190508181036000830152613ab881613a7c565b9050919050565b7f4f66666572206e6f742065787069726564207965742100000000000000000000600082015250565b6000613af5601683613197565b9150613b0082613abf565b602082019050919050565b60006020820190508181036000830152613b2481613ae8565b9050919050565b7f4434000000000000000000000000000000000000000000000000000000000000600082015250565b6000613b61600283613197565b9150613b6c82613b2b565b602082019050919050565b60006020820190508181036000830152613b9081613b54565b9050919050565b7f4f7074696f6e20646f6573206e6f74206578697374732e000000000000000000600082015250565b6000613bcd601783613197565b9150613bd882613b97565b602082019050919050565b60006020820190508181036000830152613bfc81613bc0565b9050919050565b7f4431340000000000000000000000000000000000000000000000000000000000600082015250565b6000613c39600383613197565b9150613c4482613c03565b602082019050919050565b60006020820190508181036000830152613c6881613c2c565b905091905056fea26469706673582212200c4d992668a3a4ea23e1eaaec1af37fc9213de7b264efad180eb413095c42b4064736f6c634300080a0033",
  "devdoc": {
    "kind": "dev",
    "methods": {
      "buyOption(uint256)": {
        "details": "change participator address to msg.sender and delist the option from secondary market",
        "params": {
          "optionId": "ID of the option"
        }
      },
      "checkUpkeep(bytes)": {
        "details": "To ensure that it is never called, you may want to add the cannotExecute modifier from KeeperBase to your implementation of this method.",
        "params": {
          "checkData": "specified in the upkeep registration so it is always the same for a registered upkeep. This can easily be broken down into specific arguments using `abi.decode`, so multiple upkeeps can be registered on the same contract and easily differentiated by the contract."
        },
        "returns": {
          "performData": "bytes that the keeper should call performUpkeep with, if upkeep is needed. If you would like to encode data to decode later, try `abi.encode`.",
          "upkeepNeeded": "boolean to indicate whether the keeper should call performUpkeep or not."
        }
      },
      "delistOption(uint256)": {
        "details": "sets listed field of option to false in option mapping, only callable by the participator",
        "params": {
          "optionId": "ID of the option"
        }
      },
      "exerciseOption(uint256)": {
        "details": "transfers the counter assets to contract and transfers the colleteral to msg.sender only callable by the participator",
        "params": {
          "optionId": "ID of the option"
        }
      },
      "listOption(uint256,address,uint256)": {
        "details": "sets listed field of option to true, asset address and amount in option mapping",
        "params": {
          "optionId": "ID of the option, asset Address of the asset that seller wants to receive, amount Amount of asset"
        }
      },
      "offerOption(address,address,address,uint256,uint256,uint256,uint256,uint256)": {
        "details": "locks the colleteral, save the OptionSpecs to mapping with optionId and emits OfferEvent",
        "params": {
          "colleteral": "Address of colleteral asset, counterAsset Address of counter asset, ",
          "premiumAsset": "Address of premium asset, amountOfColleteral Amount of colleteral to be locked and promised"
        }
      },
      "participateOption(uint256)": {
        "details": "transfers premium asset to contract, sets isParticipated to true and participator to msg.sender options mapping",
        "params": {
          "optionId": "ID of the option"
        }
      },
      "performUpkeep(bytes)": {
        "details": "The input to this method should not be trusted, and the caller of the method should not even be restricted to any single registry. Anyone should be able call it, and the input should be validated, there is no guarantee that the data passed in is the performData returned from checkUpkeep. This could happen due to malicious keepers, racing keepers, or simply a state change while the performUpkeep transaction is waiting for confirmation. Always validate the data passed in.",
        "params": {
          "performData": "is the data which was passed back from the checkData simulation. If it is encoded, it can easily be decoded into other types by calling `abi.decode`. This data should not be trusted, and should be validated against the contract's current state."
        }
      },
      "refundColleteral(uint256)": {
        "details": "refund the colleteral only if option is not participated or option expires worthless",
        "params": {
          "optionId": "ID of the option"
        }
      },
      "supportsInterface(bytes4)": {
        "details": "Returns true if this contract implements the interface defined by `interfaceId`. See the corresponding https://eips.ethereum.org/EIPS/eip-165#how-interfaces-are-identified[EIP section] to learn more about how these ids are created. This function call must use less than 30 000 gas."
      },
      "withdraw(address,uint256)": {
        "details": "transfer the token that option seller should receive",
        "params": {
          "amount": "Amount of thw token received",
          "asset": "Address of the token to receive"
        }
      },
      "withdrawCA(uint256)": {
        "details": "transfer the counter asset to initiator only if option is exercised",
        "params": {
          "optionId": "ID of the option, receiver Address of buyer of the option  contract"
        }
      },
      "withdrawPremium(uint256)": {
        "details": "transfers the premium asset if there is a participant in option contract only callable by the option initiator",
        "params": {
          "optionId": "ID of the option"
        }
      }
    },
    "version": 1
  },
  "userdoc": {
    "kind": "user",
    "methods": {
      "buyOption(uint256)": {
        "notice": "buy the option from secondary market"
      },
      "checkUpkeep(bytes)": {
        "notice": "method that is simulated by the keepers to see if any work actually needs to be performed. This method does does not actually need to be executable, and since it is only ever simulated it can consume lots of gas."
      },
      "delistOption(uint256)": {
        "notice": "delists the option from secondary market"
      },
      "exerciseOption(uint256)": {
        "notice": "exercies the option"
      },
      "listOption(uint256,address,uint256)": {
        "notice": "list the option in secondary market"
      },
      "offerOption(address,address,address,uint256,uint256,uint256,uint256,uint256)": {
        "notice": "publish an offer for the option contract"
      },
      "participateOption(uint256)": {
        "notice": "participate in option contract by paying the option premium"
      },
      "performUpkeep(bytes)": {
        "notice": "method that is actually executed by the keepers, via the registry. The data returned by the checkUpkeep simulation will be passed into this method to actually be executed."
      },
      "refundColleteral(uint256)": {
        "notice": "withdraw colleteral only if no ones participates in offer period or option expires worthless"
      },
      "withdraw(address,uint256)": {
        "notice": "withdraw the amount that seller of the option should receive"
      },
      "withdrawCA(uint256)": {
        "notice": "transfers the counter asset to caller"
      },
      "withdrawPremium(uint256)": {
        "notice": "withdraw the option premium "
      }
    },
    "version": 1
  },
  "storageLayout": {
    "storage": [
      {
        "astId": 2244,
        "contract": "contracts/OpWiz/OpWizChainlinkCompatible.sol:OpWizChainlinkCompatible",
        "label": "counter",
        "offset": 0,
        "slot": "0",
        "type": "t_struct(Counter)1374_storage"
      },
      {
        "astId": 2249,
        "contract": "contracts/OpWiz/OpWizChainlinkCompatible.sol:OpWizChainlinkCompatible",
        "label": "options",
        "offset": 0,
        "slot": "1",
        "type": "t_mapping(t_uint256,t_struct(Option)1513_storage)"
      },
      {
        "astId": 2254,
        "contract": "contracts/OpWiz/OpWizChainlinkCompatible.sol:OpWizChainlinkCompatible",
        "label": "optionDetails",
        "offset": 0,
        "slot": "2",
        "type": "t_mapping(t_uint256,t_struct(OptionDetails)1530_storage)"
      },
      {
        "astId": 2260,
        "contract": "contracts/OpWiz/OpWizChainlinkCompatible.sol:OpWizChainlinkCompatible",
        "label": "withdrawAllowance",
        "offset": 0,
        "slot": "3",
        "type": "t_mapping(t_address,t_mapping(t_address,t_uint256))"
      }
    ],
    "types": {
      "t_address": {
        "encoding": "inplace",
        "label": "address",
        "numberOfBytes": "20"
      },
      "t_bool": {
        "encoding": "inplace",
        "label": "bool",
        "numberOfBytes": "1"
      },
      "t_mapping(t_address,t_mapping(t_address,t_uint256))": {
        "encoding": "mapping",
        "key": "t_address",
        "label": "mapping(address => mapping(address => uint256))",
        "numberOfBytes": "32",
        "value": "t_mapping(t_address,t_uint256)"
      },
      "t_mapping(t_address,t_uint256)": {
        "encoding": "mapping",
        "key": "t_address",
        "label": "mapping(address => uint256)",
        "numberOfBytes": "32",
        "value": "t_uint256"
      },
      "t_mapping(t_uint256,t_struct(Option)1513_storage)": {
        "encoding": "mapping",
        "key": "t_uint256",
        "label": "mapping(uint256 => struct IOpWizSimple.Option)",
        "numberOfBytes": "32",
        "value": "t_struct(Option)1513_storage"
      },
      "t_mapping(t_uint256,t_struct(OptionDetails)1530_storage)": {
        "encoding": "mapping",
        "key": "t_uint256",
        "label": "mapping(uint256 => struct IOpWizSimple.OptionDetails)",
        "numberOfBytes": "32",
        "value": "t_struct(OptionDetails)1530_storage"
      },
      "t_struct(Counter)1374_storage": {
        "encoding": "inplace",
        "label": "struct Counters.Counter",
        "members": [
          {
            "astId": 1373,
            "contract": "contracts/OpWiz/OpWizChainlinkCompatible.sol:OpWizChainlinkCompatible",
            "label": "_value",
            "offset": 0,
            "slot": "0",
            "type": "t_uint256"
          }
        ],
        "numberOfBytes": "32"
      },
      "t_struct(Option)1513_storage": {
        "encoding": "inplace",
        "label": "struct IOpWizSimple.Option",
        "members": [
          {
            "astId": 1498,
            "contract": "contracts/OpWiz/OpWizChainlinkCompatible.sol:OpWizChainlinkCompatible",
            "label": "initiator",
            "offset": 0,
            "slot": "0",
            "type": "t_address"
          },
          {
            "astId": 1500,
            "contract": "contracts/OpWiz/OpWizChainlinkCompatible.sol:OpWizChainlinkCompatible",
            "label": "participant",
            "offset": 0,
            "slot": "1",
            "type": "t_address"
          },
          {
            "astId": 1502,
            "contract": "contracts/OpWiz/OpWizChainlinkCompatible.sol:OpWizChainlinkCompatible",
            "label": "colleteral",
            "offset": 0,
            "slot": "2",
            "type": "t_address"
          },
          {
            "astId": 1504,
            "contract": "contracts/OpWiz/OpWizChainlinkCompatible.sol:OpWizChainlinkCompatible",
            "label": "counterAsset",
            "offset": 0,
            "slot": "3",
            "type": "t_address"
          },
          {
            "astId": 1506,
            "contract": "contracts/OpWiz/OpWizChainlinkCompatible.sol:OpWizChainlinkCompatible",
            "label": "premiumAsset",
            "offset": 0,
            "slot": "4",
            "type": "t_address"
          },
          {
            "astId": 1508,
            "contract": "contracts/OpWiz/OpWizChainlinkCompatible.sol:OpWizChainlinkCompatible",
            "label": "amountOfColleteral",
            "offset": 0,
            "slot": "5",
            "type": "t_uint256"
          },
          {
            "astId": 1510,
            "contract": "contracts/OpWiz/OpWizChainlinkCompatible.sol:OpWizChainlinkCompatible",
            "label": "amountOfCA",
            "offset": 0,
            "slot": "6",
            "type": "t_uint256"
          },
          {
            "astId": 1512,
            "contract": "contracts/OpWiz/OpWizChainlinkCompatible.sol:OpWizChainlinkCompatible",
            "label": "premiumAmount",
            "offset": 0,
            "slot": "7",
            "type": "t_uint256"
          }
        ],
        "numberOfBytes": "256"
      },
      "t_struct(OptionDetails)1530_storage": {
        "encoding": "inplace",
        "label": "struct IOpWizSimple.OptionDetails",
        "members": [
          {
            "astId": 1515,
            "contract": "contracts/OpWiz/OpWizChainlinkCompatible.sol:OpWizChainlinkCompatible",
            "label": "listAsset",
            "offset": 0,
            "slot": "0",
            "type": "t_address"
          },
          {
            "astId": 1517,
            "contract": "contracts/OpWiz/OpWizChainlinkCompatible.sol:OpWizChainlinkCompatible",
            "label": "priceFeedAddress",
            "offset": 0,
            "slot": "1",
            "type": "t_address"
          },
          {
            "astId": 1519,
            "contract": "contracts/OpWiz/OpWizChainlinkCompatible.sol:OpWizChainlinkCompatible",
            "label": "poolAddress",
            "offset": 0,
            "slot": "2",
            "type": "t_address"
          },
          {
            "astId": 1521,
            "contract": "contracts/OpWiz/OpWizChainlinkCompatible.sol:OpWizChainlinkCompatible",
            "label": "offerEnd",
            "offset": 0,
            "slot": "3",
            "type": "t_uint256"
          },
          {
            "astId": 1523,
            "contract": "contracts/OpWiz/OpWizChainlinkCompatible.sol:OpWizChainlinkCompatible",
            "label": "optionExpiry",
            "offset": 0,
            "slot": "4",
            "type": "t_uint256"
          },
          {
            "astId": 1525,
            "contract": "contracts/OpWiz/OpWizChainlinkCompatible.sol:OpWizChainlinkCompatible",
            "label": "listAmount",
            "offset": 0,
            "slot": "5",
            "type": "t_uint256"
          },
          {
            "astId": 1527,
            "contract": "contracts/OpWiz/OpWizChainlinkCompatible.sol:OpWizChainlinkCompatible",
            "label": "isListed",
            "offset": 0,
            "slot": "6",
            "type": "t_bool"
          },
          {
            "astId": 1529,
            "contract": "contracts/OpWiz/OpWizChainlinkCompatible.sol:OpWizChainlinkCompatible",
            "label": "exercised",
            "offset": 1,
            "slot": "6",
            "type": "t_bool"
          }
        ],
        "numberOfBytes": "224"
      },
      "t_uint256": {
        "encoding": "inplace",
        "label": "uint256",
        "numberOfBytes": "32"
      }
    }
  }
}