{
  "address": "0x18797f6BE63171f7e51B025c209A4A59B8eeFE5A",
  "abi": [
    {
      "anonymous": false,
      "inputs": [
        {
          "indexed": true,
          "internalType": "address",
          "name": "participator",
          "type": "address"
        },
        {
          "indexed": true,
          "internalType": "uint256",
          "name": "optionId",
          "type": "uint256"
        }
      ],
      "name": "Exercise",
      "type": "event"
    },
    {
      "anonymous": false,
      "inputs": [
        {
          "indexed": false,
          "internalType": "uint256",
          "name": "optionId",
          "type": "uint256"
        },
        {
          "indexed": false,
          "internalType": "bool",
          "name": "isListed",
          "type": "bool"
        }
      ],
      "name": "Listed",
      "type": "event"
    },
    {
      "anonymous": false,
      "inputs": [
        {
          "indexed": true,
          "internalType": "address",
          "name": "initiator",
          "type": "address"
        },
        {
          "indexed": true,
          "internalType": "uint256",
          "name": "optionId",
          "type": "uint256"
        },
        {
          "indexed": false,
          "internalType": "bool",
          "name": "setted",
          "type": "bool"
        }
      ],
      "name": "Offer",
      "type": "event"
    },
    {
      "anonymous": false,
      "inputs": [
        {
          "indexed": true,
          "internalType": "address",
          "name": "participator",
          "type": "address"
        },
        {
          "indexed": true,
          "internalType": "uint256",
          "name": "optionId",
          "type": "uint256"
        }
      ],
      "name": "Participate",
      "type": "event"
    },
    {
      "anonymous": false,
      "inputs": [
        {
          "indexed": true,
          "internalType": "address",
          "name": "from",
          "type": "address"
        },
        {
          "indexed": true,
          "internalType": "address",
          "name": "to",
          "type": "address"
        },
        {
          "indexed": true,
          "internalType": "uint256",
          "name": "optionId",
          "type": "uint256"
        }
      ],
      "name": "Transfer",
      "type": "event"
    },
    {
      "anonymous": false,
      "inputs": [
        {
          "indexed": false,
          "internalType": "address",
          "name": "asset",
          "type": "address"
        },
        {
          "indexed": false,
          "internalType": "address",
          "name": "to",
          "type": "address"
        },
        {
          "indexed": false,
          "internalType": "uint256",
          "name": "amount",
          "type": "uint256"
        }
      ],
      "name": "Withdraw",
      "type": "event"
    },
    {
      "anonymous": false,
      "inputs": [
        {
          "indexed": false,
          "internalType": "address",
          "name": "to",
          "type": "address"
        },
        {
          "indexed": false,
          "internalType": "uint256",
          "name": "optionId",
          "type": "uint256"
        },
        {
          "indexed": false,
          "internalType": "uint256",
          "name": "amount",
          "type": "uint256"
        }
      ],
      "name": "WithdrawCA",
      "type": "event"
    },
    {
      "anonymous": false,
      "inputs": [
        {
          "indexed": false,
          "internalType": "address",
          "name": "to",
          "type": "address"
        },
        {
          "indexed": false,
          "internalType": "uint256",
          "name": "optionId",
          "type": "uint256"
        },
        {
          "indexed": false,
          "internalType": "uint256",
          "name": "amount",
          "type": "uint256"
        }
      ],
      "name": "WithdrawColleteral",
      "type": "event"
    },
    {
      "anonymous": false,
      "inputs": [
        {
          "indexed": false,
          "internalType": "address",
          "name": "to",
          "type": "address"
        },
        {
          "indexed": false,
          "internalType": "uint256",
          "name": "optionId",
          "type": "uint256"
        },
        {
          "indexed": false,
          "internalType": "uint256",
          "name": "amount",
          "type": "uint256"
        }
      ],
      "name": "WithdrawPremium",
      "type": "event"
    },
    {
      "inputs": [],
      "name": "ADDRESSES_PROVIDER",
      "outputs": [
        {
          "internalType": "contract IPoolAddressesProvider",
          "name": "",
          "type": "address"
        }
      ],
      "stateMutability": "view",
      "type": "function"
    },
    {
      "inputs": [],
      "name": "POOL",
      "outputs": [
        {
          "internalType": "contract IPool",
          "name": "",
          "type": "address"
        }
      ],
      "stateMutability": "view",
      "type": "function"
    },
    {
      "inputs": [
        {
          "internalType": "uint256",
          "name": "optionId",
          "type": "uint256"
        }
      ],
      "name": "buyOption",
      "outputs": [],
      "stateMutability": "nonpayable",
      "type": "function"
    },
    {
      "inputs": [
        {
          "internalType": "uint256",
          "name": "optionId",
          "type": "uint256"
        }
      ],
      "name": "delistOption",
      "outputs": [],
      "stateMutability": "nonpayable",
      "type": "function"
    },
    {
      "inputs": [
        {
          "internalType": "address",
          "name": "asset",
          "type": "address"
        },
        {
          "internalType": "uint256",
          "name": "amount",
          "type": "uint256"
        },
        {
          "internalType": "uint256",
          "name": "premium",
          "type": "uint256"
        },
        {
          "internalType": "address",
          "name": "initiator",
          "type": "address"
        },
        {
          "internalType": "bytes",
          "name": "params",
          "type": "bytes"
        }
      ],
      "name": "executeOperation",
      "outputs": [
        {
          "internalType": "bool",
          "name": "",
          "type": "bool"
        }
      ],
      "stateMutability": "nonpayable",
      "type": "function"
    },
    {
      "inputs": [
        {
          "internalType": "uint256",
          "name": "optionId",
          "type": "uint256"
        }
      ],
      "name": "exerciseOption",
      "outputs": [],
      "stateMutability": "nonpayable",
      "type": "function"
    },
    {
      "inputs": [
        {
          "internalType": "uint256",
          "name": "optionId",
          "type": "uint256"
        },
        {
          "internalType": "address",
          "name": "flashPool",
          "type": "address"
        },
        {
          "internalType": "uint256",
          "name": "amount",
          "type": "uint256"
        },
        {
          "internalType": "uint16",
          "name": "referralCode",
          "type": "uint16"
        },
        {
          "internalType": "bytes",
          "name": "params",
          "type": "bytes"
        }
      ],
      "name": "flashExercise",
      "outputs": [],
      "stateMutability": "nonpayable",
      "type": "function"
    },
    {
      "inputs": [
        {
          "internalType": "uint256",
          "name": "optionId",
          "type": "uint256"
        },
        {
          "internalType": "address",
          "name": "asset",
          "type": "address"
        },
        {
          "internalType": "uint256",
          "name": "amount",
          "type": "uint256"
        }
      ],
      "name": "listOption",
      "outputs": [],
      "stateMutability": "nonpayable",
      "type": "function"
    },
    {
      "inputs": [
        {
          "internalType": "address",
          "name": "colleteral",
          "type": "address"
        },
        {
          "internalType": "address",
          "name": "counterAsset",
          "type": "address"
        },
        {
          "internalType": "address",
          "name": "premiumAsset",
          "type": "address"
        },
        {
          "internalType": "uint256",
          "name": "amountOfColleteral",
          "type": "uint256"
        },
        {
          "internalType": "uint256",
          "name": "amountOfCA",
          "type": "uint256"
        },
        {
          "internalType": "uint256",
          "name": "premiumAmount",
          "type": "uint256"
        },
        {
          "internalType": "uint256",
          "name": "optionExpiry",
          "type": "uint256"
        },
        {
          "internalType": "uint256",
          "name": "offerEnd",
          "type": "uint256"
        }
      ],
      "name": "offerOption",
      "outputs": [],
      "stateMutability": "nonpayable",
      "type": "function"
    },
    {
      "inputs": [
        {
          "internalType": "uint256",
          "name": "",
          "type": "uint256"
        }
      ],
      "name": "optionDetails",
      "outputs": [
        {
          "internalType": "address",
          "name": "listAsset",
          "type": "address"
        },
        {
          "internalType": "address",
          "name": "priceFeedAddress",
          "type": "address"
        },
        {
          "internalType": "address",
          "name": "poolAddress",
          "type": "address"
        },
        {
          "internalType": "uint256",
          "name": "offerEnd",
          "type": "uint256"
        },
        {
          "internalType": "uint256",
          "name": "optionExpiry",
          "type": "uint256"
        },
        {
          "internalType": "uint256",
          "name": "listAmount",
          "type": "uint256"
        },
        {
          "internalType": "bool",
          "name": "isListed",
          "type": "bool"
        },
        {
          "internalType": "bool",
          "name": "exercised",
          "type": "bool"
        }
      ],
      "stateMutability": "view",
      "type": "function"
    },
    {
      "inputs": [
        {
          "internalType": "uint256",
          "name": "",
          "type": "uint256"
        }
      ],
      "name": "options",
      "outputs": [
        {
          "internalType": "address",
          "name": "initiator",
          "type": "address"
        },
        {
          "internalType": "address",
          "name": "participant",
          "type": "address"
        },
        {
          "internalType": "address",
          "name": "colleteral",
          "type": "address"
        },
        {
          "internalType": "address",
          "name": "counterAsset",
          "type": "address"
        },
        {
          "internalType": "address",
          "name": "premiumAsset",
          "type": "address"
        },
        {
          "internalType": "uint256",
          "name": "amountOfColleteral",
          "type": "uint256"
        },
        {
          "internalType": "uint256",
          "name": "amountOfCA",
          "type": "uint256"
        },
        {
          "internalType": "uint256",
          "name": "premiumAmount",
          "type": "uint256"
        }
      ],
      "stateMutability": "view",
      "type": "function"
    },
    {
      "inputs": [
        {
          "internalType": "uint256",
          "name": "optionId",
          "type": "uint256"
        }
      ],
      "name": "participateOption",
      "outputs": [],
      "stateMutability": "nonpayable",
      "type": "function"
    },
    {
      "inputs": [
        {
          "internalType": "uint256",
          "name": "optionId",
          "type": "uint256"
        }
      ],
      "name": "refundColleteral",
      "outputs": [],
      "stateMutability": "nonpayable",
      "type": "function"
    },
    {
      "inputs": [
        {
          "internalType": "bytes4",
          "name": "interfaceId",
          "type": "bytes4"
        }
      ],
      "name": "supportsInterface",
      "outputs": [
        {
          "internalType": "bool",
          "name": "",
          "type": "bool"
        }
      ],
      "stateMutability": "view",
      "type": "function"
    },
    {
      "inputs": [
        {
          "internalType": "address",
          "name": "asset",
          "type": "address"
        },
        {
          "internalType": "uint256",
          "name": "amount",
          "type": "uint256"
        }
      ],
      "name": "withdraw",
      "outputs": [],
      "stateMutability": "nonpayable",
      "type": "function"
    },
    {
      "inputs": [
        {
          "internalType": "address",
          "name": "",
          "type": "address"
        },
        {
          "internalType": "address",
          "name": "",
          "type": "address"
        }
      ],
      "name": "withdrawAllowance",
      "outputs": [
        {
          "internalType": "uint256",
          "name": "",
          "type": "uint256"
        }
      ],
      "stateMutability": "view",
      "type": "function"
    },
    {
      "inputs": [
        {
          "internalType": "uint256",
          "name": "optionId",
          "type": "uint256"
        }
      ],
      "name": "withdrawCA",
      "outputs": [],
      "stateMutability": "nonpayable",
      "type": "function"
    },
    {
      "inputs": [
        {
          "internalType": "uint256",
          "name": "optionId",
          "type": "uint256"
        }
      ],
      "name": "withdrawPremium",
      "outputs": [],
      "stateMutability": "nonpayable",
      "type": "function"
    }
  ],
  "transactionHash": "0x0906ba194719cdb4f249dfc1651ff580e788a26e6f38261319f00289eaa37f94",
  "args": [],
  "numDeployments": 1,
  "solcInputHash": "b82065cc0451e7128b797d1e0ea9ddc7",
  "bytecode": "0x608060405234801561001057600080fd5b50613c10806100206000396000f3fe608060405234801561001057600080fd5b50600436106101165760003560e01c806357620cdf116100a2578063b91916a611610071578063b91916a6146102fd578063f3fef3a314610319578063f52f252614610335578063f81cba0514610351578063fba225b91461036d57610116565b806357620cdf1461028b57806360514205146102a75780637535d246146102c35780637f8368da146102e157610116565b80631b11d0ff116100e95780631b11d0ff146101bc5780631f01664a146101ec578063233ac0081461020857806329a2755c14610238578063409e22051461025457610116565b806301ffc9a71461011b5780630542975c1461014b578063065170f41461016957806319067b64146101a0575b600080fd5b61013560048036038101906101309190612b55565b610389565b6040516101429190612b9d565b60405180910390f35b610153610429565b6040516101609190612c37565b60405180910390f35b610183600480360381019061017e9190612c88565b61044f565b604051610197989796959493929190612ce5565b60405180910390f35b6101ba60048036038101906101b59190612e2e565b610511565b005b6101d660048036038101906101d19190612ec8565b610878565b6040516101e39190612b9d565b60405180910390f35b61020660048036038101906102019190612c88565b610888565b005b610222600480360381019061021d9190612f62565b610c0f565b60405161022f9190612fa2565b60405180910390f35b610252600480360381019061024d9190612c88565b610c34565b005b61026e60048036038101906102699190612c88565b610c41565b604051610282989796959493929190612fbd565b60405180910390f35b6102a560048036038101906102a09190612c88565b610d29565b005b6102c160048036038101906102bc9190612c88565b610e03565b005b6102cb611092565b6040516102d8919061305c565b60405180910390f35b6102fb60048036038101906102f69190613077565b6110b8565b005b6103176004803603810190610312919061312d565b611453565b005b610333600480360381019061032e9190613180565b611771565b005b61034f600480360381019061034a9190612c88565b611981565b005b61036b60048036038101906103669190612c88565b611b02565b005b61038760048036038101906103829190612c88565b611dc3565b005b60006301ffc9a760e01b7bffffffffffffffffffffffffffffffffffffffffffffffffffffffff1916827bffffffffffffffffffffffffffffffffffffffffffffffffffffffff191614806104225750631b11d0ff60e01b7bffffffffffffffffffffffffffffffffffffffffffffffffffffffff1916827bffffffffffffffffffffffffffffffffffffffffffffffffffffffff1916145b9050919050565b600460009054906101000a900473ffffffffffffffffffffffffffffffffffffffff1681565b60026020528060005260406000206000915090508060000160009054906101000a900473ffffffffffffffffffffffffffffffffffffffff16908060010160009054906101000a900473ffffffffffffffffffffffffffffffffffffffff16908060020160009054906101000a900473ffffffffffffffffffffffffffffffffffffffff16908060030154908060040154908060050154908060060160009054906101000a900460ff16908060060160019054906101000a900460ff16905088565b33866001600082815260200190815260200160002060010160009054906101000a900473ffffffffffffffffffffffffffffffffffffffff1673ffffffffffffffffffffffffffffffffffffffff168273ffffffffffffffffffffffffffffffffffffffff16146105b7576040517f08c379a00000000000000000000000000000000000000000000000000000000081526004016105ae9061321d565b60405180910390fd5b876000801561061d5742600260008481526020019081526020016000206004015410610618576040517f08c379a000000000000000000000000000000000000000000000000000000000815260040161060f90613289565b60405180910390fd5b610677565b4260026000848152602001908152602001600020600401541015610676576040517f08c379a000000000000000000000000000000000000000000000000000000000815260040161066d906132f5565b60405180910390fd5b5b88600460006101000a81548173ffffffffffffffffffffffffffffffffffffffff021916908373ffffffffffffffffffffffffffffffffffffffff160217905550600460009054906101000a900473ffffffffffffffffffffffffffffffffffffffff1673ffffffffffffffffffffffffffffffffffffffff1663026b1d5f6040518163ffffffff1660e01b8152600401602060405180830381865afa158015610725573d6000803e3d6000fd5b505050506040513d601f19601f82011682018060405250810190610749919061332a565b600560006101000a81548173ffffffffffffffffffffffffffffffffffffffff021916908373ffffffffffffffffffffffffffffffffffffffff160217905550600560009054906101000a900473ffffffffffffffffffffffffffffffffffffffff1673ffffffffffffffffffffffffffffffffffffffff166342b0b77c30600160008e815260200190815260200160002060020160009054906101000a900473ffffffffffffffffffffffffffffffffffffffff16600160008f8152602001908152602001600020600501548a8a8d6040518763ffffffff1660e01b815260040161083a969594939291906133c4565b600060405180830381600087803b15801561085457600080fd5b505af1158015610868573d6000803e3d6000fd5b5050505050505050505050505050565b6000600190509695505050505050565b33816001600082815260200190815260200160002060000160009054906101000a900473ffffffffffffffffffffffffffffffffffffffff1673ffffffffffffffffffffffffffffffffffffffff168273ffffffffffffffffffffffffffffffffffffffff161461092e576040517f08c379a00000000000000000000000000000000000000000000000000000000081526004016109259061346c565b60405180910390fd5b826001806109e057600073ffffffffffffffffffffffffffffffffffffffff166001600084815260200190815260200160002060010160009054906101000a900473ffffffffffffffffffffffffffffffffffffffff1673ffffffffffffffffffffffffffffffffffffffff16146109db576040517f08c379a00000000000000000000000000000000000000000000000000000000081526004016109d2906134d8565b60405180910390fd5b610a87565b600073ffffffffffffffffffffffffffffffffffffffff166001600084815260200190815260200160002060010160009054906101000a900473ffffffffffffffffffffffffffffffffffffffff1673ffffffffffffffffffffffffffffffffffffffff161415610a86576040517f08c379a0000000000000000000000000000000000000000000000000000000008152600401610a7d90613544565b60405180910390fd5b5b6000600160008781526020019081526020016000206007015411610ae0576040517f08c379a0000000000000000000000000000000000000000000000000000000008152600401610ad7906135b0565b60405180910390fd5b600060016000878152602001908152602001600020600701549050600060016000888152602001908152602001600020600701819055506001600087815260200190815260200160002060040160009054906101000a900473ffffffffffffffffffffffffffffffffffffffff1673ffffffffffffffffffffffffffffffffffffffff1663a9059cbb33836040518363ffffffff1660e01b8152600401610b889291906135d0565b6020604051808303816000875af1158015610ba7573d6000803e3d6000fd5b505050506040513d601f19601f82011682018060405250810190610bcb9190613625565b507f364c50cfd85ef2e44ae41c769b375ca3e4cd21a63f2f593171bdda820f70d1f7338783604051610bff93929190613652565b60405180910390a1505050505050565b6003602052816000526040600020602052806000526040600020600091509150505481565b610c3e3382611e9d565b50565b60016020528060005260406000206000915090508060000160009054906101000a900473ffffffffffffffffffffffffffffffffffffffff16908060010160009054906101000a900473ffffffffffffffffffffffffffffffffffffffff16908060020160009054906101000a900473ffffffffffffffffffffffffffffffffffffffff16908060030160009054906101000a900473ffffffffffffffffffffffffffffffffffffffff16908060040160009054906101000a900473ffffffffffffffffffffffffffffffffffffffff16908060050154908060060154908060070154905088565b610d333382612015565b6001600082815260200190815260200160002060040160009054906101000a900473ffffffffffffffffffffffffffffffffffffffff1673ffffffffffffffffffffffffffffffffffffffff166323b872dd333060016000868152602001908152602001600020600701546040518463ffffffff1660e01b8152600401610dbc93929190613689565b6020604051808303816000875af1158015610ddb573d6000803e3d6000fd5b505050506040513d601f19601f82011682018060405250810190610dff9190613625565b5050565b33816001600082815260200190815260200160002060000160009054906101000a900473ffffffffffffffffffffffffffffffffffffffff1673ffffffffffffffffffffffffffffffffffffffff168273ffffffffffffffffffffffffffffffffffffffff1614610ea9576040517f08c379a0000000000000000000000000000000000000000000000000000000008152600401610ea09061346c565b60405180910390fd5b6002600084815260200190815260200160002060060160019054906101000a900460ff16610f0c576040517f08c379a0000000000000000000000000000000000000000000000000000000008152600401610f039061370c565b60405180910390fd5b6000600160008581526020019081526020016000206006015411610f65576040517f08c379a0000000000000000000000000000000000000000000000000000000008152600401610f5c906135b0565b60405180910390fd5b600060016000858152602001908152602001600020600601549050600060016000868152602001908152602001600020600601819055506001600085815260200190815260200160002060030160009054906101000a900473ffffffffffffffffffffffffffffffffffffffff1673ffffffffffffffffffffffffffffffffffffffff1663a9059cbb33836040518363ffffffff1660e01b815260040161100d9291906135d0565b6020604051808303816000875af115801561102c573d6000803e3d6000fd5b505050506040513d601f19601f820116820180604052508101906110509190613625565b507fd4072f896a83f1975997e4b3c8cc6e44538eafada8b6537b11e77ff1ead2455f33858360405161108493929190613652565b60405180910390a150505050565b600560009054906101000a900473ffffffffffffffffffffffffffffffffffffffff1681565b87600073ffffffffffffffffffffffffffffffffffffffff168173ffffffffffffffffffffffffffffffffffffffff161415611129576040517f08c379a000000000000000000000000000000000000000000000000000000000815260040161112090613778565b60405180910390fd5b87600073ffffffffffffffffffffffffffffffffffffffff168173ffffffffffffffffffffffffffffffffffffffff16141561119a576040517f08c379a000000000000000000000000000000000000000000000000000000000815260040161119190613778565b60405180910390fd5b87600073ffffffffffffffffffffffffffffffffffffffff168173ffffffffffffffffffffffffffffffffffffffff16141561120b576040517f08c379a000000000000000000000000000000000000000000000000000000000815260040161120290613778565b60405180910390fd5b8a73ffffffffffffffffffffffffffffffffffffffff166323b872dd33308b6040518463ffffffff1660e01b815260040161124893929190613689565b6020604051808303816000875af1158015611267573d6000803e3d6000fd5b505050506040513d601f19601f8201168201806040525081019061128b9190613625565b5061129660006123eb565b60006112a26000612401565b90508b6001600083815260200190815260200160002060020160006101000a81548173ffffffffffffffffffffffffffffffffffffffff021916908373ffffffffffffffffffffffffffffffffffffffff16021790555060006001600083815260200190815260200160002090508b8160030160006101000a81548173ffffffffffffffffffffffffffffffffffffffff021916908373ffffffffffffffffffffffffffffffffffffffff1602179055508a8160040160006101000a81548173ffffffffffffffffffffffffffffffffffffffff021916908373ffffffffffffffffffffffffffffffffffffffff160217905550898160050181905550878160070181905550888160060181905550338160000160006101000a81548173ffffffffffffffffffffffffffffffffffffffff021916908373ffffffffffffffffffffffffffffffffffffffff160217905550813373ffffffffffffffffffffffffffffffffffffffff167f37dc54e85dbf55ec2e90e3cdd1758d2306604af7b56743fa10d9115fd1e39159600160405161143c9190612b9d565b60405180910390a350505050505050505050505050565b33836001600082815260200190815260200160002060010160009054906101000a900473ffffffffffffffffffffffffffffffffffffffff1673ffffffffffffffffffffffffffffffffffffffff168273ffffffffffffffffffffffffffffffffffffffff16146114f9576040517f08c379a00000000000000000000000000000000000000000000000000000000081526004016114f09061321d565b60405180910390fd5b846000801561155f574260026000848152602001908152602001600020600401541061155a576040517f08c379a000000000000000000000000000000000000000000000000000000000815260040161155190613289565b60405180910390fd5b6115b9565b42600260008481526020019081526020016000206004015410156115b8576040517f08c379a00000000000000000000000000000000000000000000000000000000081526004016115af906132f5565b60405180910390fd5b5b85600073ffffffffffffffffffffffffffffffffffffffff168173ffffffffffffffffffffffffffffffffffffffff16141561162a576040517f08c379a000000000000000000000000000000000000000000000000000000000815260040161162190613778565b60405180910390fd5b6002600089815260200190815260200160002060060160019054906101000a900460ff161561168e576040517f08c379a0000000000000000000000000000000000000000000000000000000008152600401611685906137e4565b60405180910390fd5b6001600260008a815260200190815260200160002060060160006101000a81548160ff02191690831515021790555086600260008a815260200190815260200160002060000160006101000a81548173ffffffffffffffffffffffffffffffffffffffff021916908373ffffffffffffffffffffffffffffffffffffffff16021790555085600260008a8152602001908152602001600020600501819055507f7f8b8b68ebd95ed5f82f3fae981c59ed57bcc3f9e43ae3c49a98963ac0f5bf1c88600160405161175f929190613804565b60405180910390a15050505050505050565b80600360008473ffffffffffffffffffffffffffffffffffffffff1673ffffffffffffffffffffffffffffffffffffffff16815260200190815260200160002060003373ffffffffffffffffffffffffffffffffffffffff1673ffffffffffffffffffffffffffffffffffffffff168152602001908152602001600020541015611830576040517f08c379a000000000000000000000000000000000000000000000000000000000815260040161182790613879565b60405180910390fd5b80600360008473ffffffffffffffffffffffffffffffffffffffff1673ffffffffffffffffffffffffffffffffffffffff16815260200190815260200160002060003373ffffffffffffffffffffffffffffffffffffffff1673ffffffffffffffffffffffffffffffffffffffff16815260200190815260200160002060008282546118bc91906138c8565b925050819055508173ffffffffffffffffffffffffffffffffffffffff1663a9059cbb33836040518363ffffffff1660e01b81526004016118fe9291906135d0565b6020604051808303816000875af115801561191d573d6000803e3d6000fd5b505050506040513d601f19601f820116820180604052508101906119419190613625565b507f9b1bfa7fa9ee420a16e124f794c35ac9f90472acc99140eb2f6447c714cad8eb82338360405161197593929190613689565b60405180910390a15050565b33816001600082815260200190815260200160002060010160009054906101000a900473ffffffffffffffffffffffffffffffffffffffff1673ffffffffffffffffffffffffffffffffffffffff168273ffffffffffffffffffffffffffffffffffffffff1614611a27576040517f08c379a0000000000000000000000000000000000000000000000000000000008152600401611a1e9061321d565b60405180910390fd5b611a308361240f565b6001600084815260200190815260200160002060030160009054906101000a900473ffffffffffffffffffffffffffffffffffffffff1673ffffffffffffffffffffffffffffffffffffffff166323b872dd333060016000888152602001908152602001600020600601546040518463ffffffff1660e01b8152600401611ab993929190613689565b6020604051808303816000875af1158015611ad8573d6000803e3d6000fd5b505050506040513d601f19601f82011682018060405250810190611afc9190613625565b50505050565b33816001600082815260200190815260200160002060000160009054906101000a900473ffffffffffffffffffffffffffffffffffffffff1673ffffffffffffffffffffffffffffffffffffffff168273ffffffffffffffffffffffffffffffffffffffff1614611ba8576040517f08c379a0000000000000000000000000000000000000000000000000000000008152600401611b9f9061346c565b60405180910390fd5b82600080600260008481526020019081526020016000206003015411611c03576040517f08c379a0000000000000000000000000000000000000000000000000000000008152600401611bfa90613948565b60405180910390fd5b8015611c67574260026000848152602001908152602001600020600301541015611c62576040517f08c379a0000000000000000000000000000000000000000000000000000000008152600401611c59906139b4565b60405180910390fd5b611cc0565b42600260008481526020019081526020016000206003015410611cbf576040517f08c379a0000000000000000000000000000000000000000000000000000000008152600401611cb690613a20565b60405180910390fd5b5b600073ffffffffffffffffffffffffffffffffffffffff166001600087815260200190815260200160002060010160009054906101000a900473ffffffffffffffffffffffffffffffffffffffff1673ffffffffffffffffffffffffffffffffffffffff161480611d735750426002600087815260200190815260200160002060040154108015611d7257506002600086815260200190815260200160002060060160019054906101000a900460ff16155b5b611db2576040517f08c379a0000000000000000000000000000000000000000000000000000000008152600401611da990613a8c565b60405180910390fd5b611dbc33866125f1565b5050505050565b611dcd338261271d565b6002600082815260200190815260200160002060000160009054906101000a900473ffffffffffffffffffffffffffffffffffffffff1673ffffffffffffffffffffffffffffffffffffffff166323b872dd333060026000868152602001908152602001600020600501546040518463ffffffff1660e01b8152600401611e5693929190613689565b6020604051808303816000875af1158015611e75573d6000803e3d6000fd5b505050506040513d601f19601f82011682018060405250810190611e999190613625565b5050565b81816001600082815260200190815260200160002060010160009054906101000a900473ffffffffffffffffffffffffffffffffffffffff1673ffffffffffffffffffffffffffffffffffffffff168273ffffffffffffffffffffffffffffffffffffffff1614611f43576040517f08c379a0000000000000000000000000000000000000000000000000000000008152600401611f3a9061321d565b60405180910390fd5b6002600084815260200190815260200160002060060160009054906101000a900460ff16611fa6576040517f08c379a0000000000000000000000000000000000000000000000000000000008152600401611f9d906137e4565b60405180910390fd5b60006002600085815260200190815260200160002060060160006101000a81548160ff0219169083151502179055507f7f8b8b68ebd95ed5f82f3fae981c59ed57bcc3f9e43ae3c49a98963ac0f5bf1c836000604051612007929190613804565b60405180910390a150505050565b80600073ffffffffffffffffffffffffffffffffffffffff166001600083815260200190815260200160002060020160009054906101000a900473ffffffffffffffffffffffffffffffffffffffff1673ffffffffffffffffffffffffffffffffffffffff1614156120bc576040517f08c379a00000000000000000000000000000000000000000000000000000000081526004016120b390613af8565b60405180910390fd5b8160008061216e57600073ffffffffffffffffffffffffffffffffffffffff166001600084815260200190815260200160002060010160009054906101000a900473ffffffffffffffffffffffffffffffffffffffff1673ffffffffffffffffffffffffffffffffffffffff1614612169576040517f08c379a0000000000000000000000000000000000000000000000000000000008152600401612160906134d8565b60405180910390fd5b612215565b600073ffffffffffffffffffffffffffffffffffffffff166001600084815260200190815260200160002060010160009054906101000a900473ffffffffffffffffffffffffffffffffffffffff1673ffffffffffffffffffffffffffffffffffffffff161415612214576040517f08c379a000000000000000000000000000000000000000000000000000000000815260040161220b90613544565b60405180910390fd5b5b8360016000600260008481526020019081526020016000206003015411612271576040517f08c379a000000000000000000000000000000000000000000000000000000000815260040161226890613948565b60405180910390fd5b80156122d55742600260008481526020019081526020016000206003015410156122d0576040517f08c379a00000000000000000000000000000000000000000000000000000000081526004016122c7906139b4565b60405180910390fd5b61232e565b4260026000848152602001908152602001600020600301541061232d576040517f08c379a000000000000000000000000000000000000000000000000000000000815260040161232490613a20565b60405180910390fd5b5b866001600088815260200190815260200160002060010160006101000a81548173ffffffffffffffffffffffffffffffffffffffff021916908373ffffffffffffffffffffffffffffffffffffffff160217905550426002600088815260200190815260200160002060030181905550858773ffffffffffffffffffffffffffffffffffffffff167feb353a6084f42c4569f7fe0e62ec9a9a107f0453a8f76735dd47ef68dcfcce3f60405160405180910390a350505050505050565b6001816000016000828254019250508190555050565b600081600001549050919050565b80600080156124755742600260008481526020019081526020016000206004015410612470576040517f08c379a000000000000000000000000000000000000000000000000000000000815260040161246790613289565b60405180910390fd5b6124cf565b42600260008481526020019081526020016000206004015410156124ce576040517f08c379a00000000000000000000000000000000000000000000000000000000081526004016124c5906132f5565b60405180910390fd5b5b60006001600085815260200190815260200160002060010160009054906101000a900473ffffffffffffffffffffffffffffffffffffffff1690506002600085815260200190815260200160002060060160019054906101000a900460ff161561256e576040517f08c379a0000000000000000000000000000000000000000000000000000000008152600401612565906137e4565b60405180910390fd5b60016002600086815260200190815260200160002060060160016101000a81548160ff0219169083151502179055506125a781856125f1565b838173ffffffffffffffffffffffffffffffffffffffff167f5a20425ee28c08dfaf53c051ce9fb1fdfedad2949379924d3313a74c2c61a2a560405160405180910390a350505050565b600060016000838152602001908152602001600020600501549050600060016000848152602001908152602001600020600501819055506001600083815260200190815260200160002060020160009054906101000a900473ffffffffffffffffffffffffffffffffffffffff1673ffffffffffffffffffffffffffffffffffffffff1663a9059cbb84836040518363ffffffff1660e01b81526004016126999291906135d0565b6020604051808303816000875af11580156126b8573d6000803e3d6000fd5b505050506040513d601f19601f820116820180604052508101906126dc9190613625565b507f6349409af923ab04f6ba4cd71740fcf0de9efb3a66822fd753b51741914227cc83838360405161271093929190613652565b60405180910390a1505050565b80600073ffffffffffffffffffffffffffffffffffffffff166001600083815260200190815260200160002060020160009054906101000a900473ffffffffffffffffffffffffffffffffffffffff1673ffffffffffffffffffffffffffffffffffffffff1614156127c4576040517f08c379a00000000000000000000000000000000000000000000000000000000081526004016127bb90613af8565b60405180910390fd5b816000801561282a5742600260008481526020019081526020016000206004015410612825576040517f08c379a000000000000000000000000000000000000000000000000000000000815260040161281c90613289565b60405180910390fd5b612884565b4260026000848152602001908152602001600020600401541015612883576040517f08c379a000000000000000000000000000000000000000000000000000000000815260040161287a906132f5565b60405180910390fd5b5b6002600085815260200190815260200160002060060160009054906101000a900460ff166128e7576040517f08c379a00000000000000000000000000000000000000000000000000000000081526004016128de90613b64565b60405180910390fd5b6002600085815260200190815260200160002060050154600360006002600088815260200190815260200160002060000160009054906101000a900473ffffffffffffffffffffffffffffffffffffffff1673ffffffffffffffffffffffffffffffffffffffff1673ffffffffffffffffffffffffffffffffffffffff16815260200190815260200160002060006001600088815260200190815260200160002060010160009054906101000a900473ffffffffffffffffffffffffffffffffffffffff1673ffffffffffffffffffffffffffffffffffffffff1673ffffffffffffffffffffffffffffffffffffffff16815260200190815260200160002060008282546129f59190613b84565b92505081905550838573ffffffffffffffffffffffffffffffffffffffff166001600087815260200190815260200160002060010160009054906101000a900473ffffffffffffffffffffffffffffffffffffffff1673ffffffffffffffffffffffffffffffffffffffff167fddf252ad1be2c89b69c2b068fc378daa952ba7f163c4a11628f55a4df523b3ef60405160405180910390a4846001600086815260200190815260200160002060010160006101000a81548173ffffffffffffffffffffffffffffffffffffffff021916908373ffffffffffffffffffffffffffffffffffffffff160217905550612aec8585611e9d565b5050505050565b600080fd5b600080fd5b60007fffffffff0000000000000000000000000000000000000000000000000000000082169050919050565b612b3281612afd565b8114612b3d57600080fd5b50565b600081359050612b4f81612b29565b92915050565b600060208284031215612b6b57612b6a612af3565b5b6000612b7984828501612b40565b91505092915050565b60008115159050919050565b612b9781612b82565b82525050565b6000602082019050612bb26000830184612b8e565b92915050565b600073ffffffffffffffffffffffffffffffffffffffff82169050919050565b6000819050919050565b6000612bfd612bf8612bf384612bb8565b612bd8565b612bb8565b9050919050565b6000612c0f82612be2565b9050919050565b6000612c2182612c04565b9050919050565b612c3181612c16565b82525050565b6000602082019050612c4c6000830184612c28565b92915050565b6000819050919050565b612c6581612c52565b8114612c7057600080fd5b50565b600081359050612c8281612c5c565b92915050565b600060208284031215612c9e57612c9d612af3565b5b6000612cac84828501612c73565b91505092915050565b6000612cc082612bb8565b9050919050565b612cd081612cb5565b82525050565b612cdf81612c52565b82525050565b600061010082019050612cfb600083018b612cc7565b612d08602083018a612cc7565b612d156040830189612cc7565b612d226060830188612cd6565b612d2f6080830187612cd6565b612d3c60a0830186612cd6565b612d4960c0830185612b8e565b612d5660e0830184612b8e565b9998505050505050505050565b612d6c81612cb5565b8114612d7757600080fd5b50565b600081359050612d8981612d63565b92915050565b600061ffff82169050919050565b612da681612d8f565b8114612db157600080fd5b50565b600081359050612dc381612d9d565b92915050565b600080fd5b600080fd5b600080fd5b60008083601f840112612dee57612ded612dc9565b5b8235905067ffffffffffffffff811115612e0b57612e0a612dce565b5b602083019150836001820283011115612e2757612e26612dd3565b5b9250929050565b60008060008060008060a08789031215612e4b57612e4a612af3565b5b6000612e5989828a01612c73565b9650506020612e6a89828a01612d7a565b9550506040612e7b89828a01612c73565b9450506060612e8c89828a01612db4565b935050608087013567ffffffffffffffff811115612ead57612eac612af8565b5b612eb989828a01612dd8565b92509250509295509295509295565b60008060008060008060a08789031215612ee557612ee4612af3565b5b6000612ef389828a01612d7a565b9650506020612f0489828a01612c73565b9550506040612f1589828a01612c73565b9450506060612f2689828a01612d7a565b935050608087013567ffffffffffffffff811115612f4757612f46612af8565b5b612f5389828a01612dd8565b92509250509295509295509295565b60008060408385031215612f7957612f78612af3565b5b6000612f8785828601612d7a565b9250506020612f9885828601612d7a565b9150509250929050565b6000602082019050612fb76000830184612cd6565b92915050565b600061010082019050612fd3600083018b612cc7565b612fe0602083018a612cc7565b612fed6040830189612cc7565b612ffa6060830188612cc7565b6130076080830187612cc7565b61301460a0830186612cd6565b61302160c0830185612cd6565b61302e60e0830184612cd6565b9998505050505050505050565b600061304682612c04565b9050919050565b6130568161303b565b82525050565b6000602082019050613071600083018461304d565b92915050565b600080600080600080600080610100898b03121561309857613097612af3565b5b60006130a68b828c01612d7a565b98505060206130b78b828c01612d7a565b97505060406130c88b828c01612d7a565b96505060606130d98b828c01612c73565b95505060806130ea8b828c01612c73565b94505060a06130fb8b828c01612c73565b93505060c061310c8b828c01612c73565b92505060e061311d8b828c01612c73565b9150509295985092959890939650565b60008060006060848603121561314657613145612af3565b5b600061315486828701612c73565b935050602061316586828701612d7a565b925050604061317686828701612c73565b9150509250925092565b6000806040838503121561319757613196612af3565b5b60006131a585828601612d7a565b92505060206131b685828601612c73565b9150509250929050565b600082825260208201905092915050565b7f4433000000000000000000000000000000000000000000000000000000000000600082015250565b60006132076002836131c0565b9150613212826131d1565b602082019050919050565b60006020820190508181036000830152613236816131fa565b9050919050565b7f4438000000000000000000000000000000000000000000000000000000000000600082015250565b60006132736002836131c0565b915061327e8261323d565b602082019050919050565b600060208201905081810360008301526132a281613266565b9050919050565b7f4439000000000000000000000000000000000000000000000000000000000000600082015250565b60006132df6002836131c0565b91506132ea826132a9565b602082019050919050565b6000602082019050818103600083015261330e816132d2565b9050919050565b60008151905061332481612d63565b92915050565b6000602082840312156133405761333f612af3565b5b600061334e84828501613315565b91505092915050565b600082825260208201905092915050565b82818337600083830152505050565b6000601f19601f8301169050919050565b60006133948385613357565b93506133a1838584613368565b6133aa83613377565b840190509392505050565b6133be81612d8f565b82525050565b600060a0820190506133d96000830189612cc7565b6133e66020830188612cc7565b6133f36040830187612cd6565b8181036060830152613406818587613388565b905061341560808301846133b5565b979650505050505050565b7f4432000000000000000000000000000000000000000000000000000000000000600082015250565b60006134566002836131c0565b915061346182613420565b602082019050919050565b6000602082019050818103600083015261348581613449565b9050919050565b7f4431330000000000000000000000000000000000000000000000000000000000600082015250565b60006134c26003836131c0565b91506134cd8261348c565b602082019050919050565b600060208201905081810360008301526134f1816134b5565b9050919050565b7f4431320000000000000000000000000000000000000000000000000000000000600082015250565b600061352e6003836131c0565b9150613539826134f8565b602082019050919050565b6000602082019050818103600083015261355d81613521565b9050919050565b7f4431310000000000000000000000000000000000000000000000000000000000600082015250565b600061359a6003836131c0565b91506135a582613564565b602082019050919050565b600060208201905081810360008301526135c98161358d565b9050919050565b60006040820190506135e56000830185612cc7565b6135f26020830184612cd6565b9392505050565b61360281612b82565b811461360d57600080fd5b50565b60008151905061361f816135f9565b92915050565b60006020828403121561363b5761363a612af3565b5b600061364984828501613610565b91505092915050565b60006060820190506136676000830186612cc7565b6136746020830185612cd6565b6136816040830184612cd6565b949350505050565b600060608201905061369e6000830186612cc7565b6136ab6020830185612cc7565b6136b86040830184612cd6565b949350505050565b7f4431300000000000000000000000000000000000000000000000000000000000600082015250565b60006136f66003836131c0565b9150613701826136c0565b602082019050919050565b60006020820190508181036000830152613725816136e9565b9050919050565b7f5472616e73616374696f6e20746f206164647265737328302921000000000000600082015250565b6000613762601a836131c0565b915061376d8261372c565b602082019050919050565b6000602082019050818103600083015261379181613755565b9050919050565b7f4437000000000000000000000000000000000000000000000000000000000000600082015250565b60006137ce6002836131c0565b91506137d982613798565b602082019050919050565b600060208201905081810360008301526137fd816137c1565b9050919050565b60006040820190506138196000830185612cd6565b6138266020830184612b8e565b9392505050565b7f4431350000000000000000000000000000000000000000000000000000000000600082015250565b60006138636003836131c0565b915061386e8261382d565b602082019050919050565b6000602082019050818103600083015261389281613856565b9050919050565b7f4e487b7100000000000000000000000000000000000000000000000000000000600052601160045260246000fd5b60006138d382612c52565b91506138de83612c52565b9250828210156138f1576138f0613899565b5b828203905092915050565b7f4f7074696f6e20706172616d6174657273206e6f742073657474656420796574600082015250565b60006139326020836131c0565b915061393d826138fc565b602082019050919050565b6000602082019050818103600083015261396181613925565b9050919050565b7f4f66666572206578706972656400000000000000000000000000000000000000600082015250565b600061399e600d836131c0565b91506139a982613968565b602082019050919050565b600060208201905081810360008301526139cd81613991565b9050919050565b7f4f66666572206e6f742065787069726564207965742100000000000000000000600082015250565b6000613a0a6016836131c0565b9150613a15826139d4565b602082019050919050565b60006020820190508181036000830152613a39816139fd565b9050919050565b7f4434000000000000000000000000000000000000000000000000000000000000600082015250565b6000613a766002836131c0565b9150613a8182613a40565b602082019050919050565b60006020820190508181036000830152613aa581613a69565b9050919050565b7f4f7074696f6e20646f6573206e6f74206578697374732e000000000000000000600082015250565b6000613ae26017836131c0565b9150613aed82613aac565b602082019050919050565b60006020820190508181036000830152613b1181613ad5565b9050919050565b7f4431340000000000000000000000000000000000000000000000000000000000600082015250565b6000613b4e6003836131c0565b9150613b5982613b18565b602082019050919050565b60006020820190508181036000830152613b7d81613b41565b9050919050565b6000613b8f82612c52565b9150613b9a83612c52565b9250827fffffffffffffffffffffffffffffffffffffffffffffffffffffffffffffffff03821115613bcf57613bce613899565b5b82820190509291505056fea264697066735822122035fd98ad59830ffcf7fc6b00df9cc3224594122fc3c3162c9e4139d58b5ad04f64736f6c634300080a0033",
  "devdoc": {
    "kind": "dev",
    "methods": {
      "buyOption(uint256)": {
        "details": "change participator address to msg.sender and delist the option from secondary market",
        "params": {
          "optionId": "ID of the option"
        }
      },
      "delistOption(uint256)": {
        "details": "sets listed field of option to false in option mapping, only callable by the participator",
        "params": {
          "optionId": "ID of the option"
        }
      },
      "executeOperation(address,uint256,uint256,address,bytes)": {
        "details": "Ensure that the contract can return the debt + premium, e.g., has      enough funds to repay and has approved the Pool to pull the total amount",
        "params": {
          "amount": "The amount of the flash-borrowed asset",
          "asset": "The address of the flash-borrowed asset",
          "initiator": "The address of the flashloan initiator",
          "params": "The byte-encoded params passed when initiating the flashloan",
          "premium": "The fee of the flash-borrowed asset"
        },
        "returns": {
          "_0": "True if the execution of the operation succeeds, false otherwise"
        }
      },
      "exerciseOption(uint256)": {
        "details": "transfers the counter assets to contract and transfers the colleteral to msg.sender only callable by the participator",
        "params": {
          "optionId": "ID of the option"
        }
      },
      "listOption(uint256,address,uint256)": {
        "details": "sets listed field of option to true, asset address and amount in option mapping",
        "params": {
          "optionId": "ID of the option, asset Address of the asset that seller wants to receive, amount Amount of asset"
        }
      },
      "offerOption(address,address,address,uint256,uint256,uint256,uint256,uint256)": {
        "details": "locks the colleteral, save the OptionSpecs to mapping with optionId and emits OfferEvent",
        "params": {
          "colleteral": "Address of colleteral asset, counterAsset Address of counter asset, ",
          "premiumAsset": "Address of premium asset, amountOfColleteral Amount of colleteral to be locked and promised"
        }
      },
      "participateOption(uint256)": {
        "details": "transfers premium asset to contract, sets isParticipated to true and participator to msg.sender options mapping",
        "params": {
          "optionId": "ID of the option"
        }
      },
      "refundColleteral(uint256)": {
        "details": "refund the colleteral only if option is not participated or option expires worthless",
        "params": {
          "optionId": "ID of the option"
        }
      },
      "supportsInterface(bytes4)": {
        "details": "Returns true if this contract implements the interface defined by `interfaceId`. See the corresponding https://eips.ethereum.org/EIPS/eip-165#how-interfaces-are-identified[EIP section] to learn more about how these ids are created. This function call must use less than 30 000 gas."
      },
      "withdraw(address,uint256)": {
        "details": "transfer the token that option seller should receive",
        "params": {
          "amount": "Amount of thw token received",
          "asset": "Address of the token to receive"
        }
      },
      "withdrawCA(uint256)": {
        "details": "transfer the counter asset to initiator only if option is exercised",
        "params": {
          "optionId": "ID of the option, receiver Address of buyer of the option  contract"
        }
      },
      "withdrawPremium(uint256)": {
        "details": "transfers the premium asset if there is a participant in option contract only callable by the option initiator",
        "params": {
          "optionId": "ID of the option"
        }
      }
    },
    "version": 1
  },
  "userdoc": {
    "kind": "user",
    "methods": {
      "buyOption(uint256)": {
        "notice": "buy the option from secondary market"
      },
      "delistOption(uint256)": {
        "notice": "delists the option from secondary market"
      },
      "executeOperation(address,uint256,uint256,address,bytes)": {
        "notice": "Executes an operation after receiving the flash-borrowed asset"
      },
      "exerciseOption(uint256)": {
        "notice": "exercies the option"
      },
      "listOption(uint256,address,uint256)": {
        "notice": "list the option in secondary market"
      },
      "offerOption(address,address,address,uint256,uint256,uint256,uint256,uint256)": {
        "notice": "publish an offer for the option contract"
      },
      "participateOption(uint256)": {
        "notice": "participate in option contract by paying the option premium"
      },
      "refundColleteral(uint256)": {
        "notice": "withdraw colleteral only if no ones participates in offer period or option expires worthless"
      },
      "withdraw(address,uint256)": {
        "notice": "withdraw the amount that seller of the option should receive"
      },
      "withdrawCA(uint256)": {
        "notice": "transfers the counter asset to caller"
      },
      "withdrawPremium(uint256)": {
        "notice": "withdraw the option premium "
      }
    },
    "version": 1
  },
  "storageLayout": {
    "storage": [
      {
        "astId": 8036,
        "contract": "contracts/OpWiz/OpWizFlashExercise.sol:OpWizFlashExercise",
        "label": "counter",
        "offset": 0,
        "slot": "0",
        "type": "t_struct(Counter)4730_storage"
      },
      {
        "astId": 8041,
        "contract": "contracts/OpWiz/OpWizFlashExercise.sol:OpWizFlashExercise",
        "label": "options",
        "offset": 0,
        "slot": "1",
        "type": "t_mapping(t_uint256,t_struct(Option)5351_storage)"
      },
      {
        "astId": 8046,
        "contract": "contracts/OpWiz/OpWizFlashExercise.sol:OpWizFlashExercise",
        "label": "optionDetails",
        "offset": 0,
        "slot": "2",
        "type": "t_mapping(t_uint256,t_struct(OptionDetails)5368_storage)"
      },
      {
        "astId": 8052,
        "contract": "contracts/OpWiz/OpWizFlashExercise.sol:OpWizFlashExercise",
        "label": "withdrawAllowance",
        "offset": 0,
        "slot": "3",
        "type": "t_mapping(t_address,t_mapping(t_address,t_uint256))"
      },
      {
        "astId": 7656,
        "contract": "contracts/OpWiz/OpWizFlashExercise.sol:OpWizFlashExercise",
        "label": "ADDRESSES_PROVIDER",
        "offset": 0,
        "slot": "4",
        "type": "t_contract(IPoolAddressesProvider)873"
      },
      {
        "astId": 7660,
        "contract": "contracts/OpWiz/OpWizFlashExercise.sol:OpWizFlashExercise",
        "label": "POOL",
        "offset": 0,
        "slot": "5",
        "type": "t_contract(IPool)664"
      }
    ],
    "types": {
      "t_address": {
        "encoding": "inplace",
        "label": "address",
        "numberOfBytes": "20"
      },
      "t_bool": {
        "encoding": "inplace",
        "label": "bool",
        "numberOfBytes": "1"
      },
      "t_contract(IPool)664": {
        "encoding": "inplace",
        "label": "contract IPool",
        "numberOfBytes": "20"
      },
      "t_contract(IPoolAddressesProvider)873": {
        "encoding": "inplace",
        "label": "contract IPoolAddressesProvider",
        "numberOfBytes": "20"
      },
      "t_mapping(t_address,t_mapping(t_address,t_uint256))": {
        "encoding": "mapping",
        "key": "t_address",
        "label": "mapping(address => mapping(address => uint256))",
        "numberOfBytes": "32",
        "value": "t_mapping(t_address,t_uint256)"
      },
      "t_mapping(t_address,t_uint256)": {
        "encoding": "mapping",
        "key": "t_address",
        "label": "mapping(address => uint256)",
        "numberOfBytes": "32",
        "value": "t_uint256"
      },
      "t_mapping(t_uint256,t_struct(Option)5351_storage)": {
        "encoding": "mapping",
        "key": "t_uint256",
        "label": "mapping(uint256 => struct IOpWizSimple.Option)",
        "numberOfBytes": "32",
        "value": "t_struct(Option)5351_storage"
      },
      "t_mapping(t_uint256,t_struct(OptionDetails)5368_storage)": {
        "encoding": "mapping",
        "key": "t_uint256",
        "label": "mapping(uint256 => struct IOpWizSimple.OptionDetails)",
        "numberOfBytes": "32",
        "value": "t_struct(OptionDetails)5368_storage"
      },
      "t_struct(Counter)4730_storage": {
        "encoding": "inplace",
        "label": "struct Counters.Counter",
        "members": [
          {
            "astId": 4729,
            "contract": "contracts/OpWiz/OpWizFlashExercise.sol:OpWizFlashExercise",
            "label": "_value",
            "offset": 0,
            "slot": "0",
            "type": "t_uint256"
          }
        ],
        "numberOfBytes": "32"
      },
      "t_struct(Option)5351_storage": {
        "encoding": "inplace",
        "label": "struct IOpWizSimple.Option",
        "members": [
          {
            "astId": 5336,
            "contract": "contracts/OpWiz/OpWizFlashExercise.sol:OpWizFlashExercise",
            "label": "initiator",
            "offset": 0,
            "slot": "0",
            "type": "t_address"
          },
          {
            "astId": 5338,
            "contract": "contracts/OpWiz/OpWizFlashExercise.sol:OpWizFlashExercise",
            "label": "participant",
            "offset": 0,
            "slot": "1",
            "type": "t_address"
          },
          {
            "astId": 5340,
            "contract": "contracts/OpWiz/OpWizFlashExercise.sol:OpWizFlashExercise",
            "label": "colleteral",
            "offset": 0,
            "slot": "2",
            "type": "t_address"
          },
          {
            "astId": 5342,
            "contract": "contracts/OpWiz/OpWizFlashExercise.sol:OpWizFlashExercise",
            "label": "counterAsset",
            "offset": 0,
            "slot": "3",
            "type": "t_address"
          },
          {
            "astId": 5344,
            "contract": "contracts/OpWiz/OpWizFlashExercise.sol:OpWizFlashExercise",
            "label": "premiumAsset",
            "offset": 0,
            "slot": "4",
            "type": "t_address"
          },
          {
            "astId": 5346,
            "contract": "contracts/OpWiz/OpWizFlashExercise.sol:OpWizFlashExercise",
            "label": "amountOfColleteral",
            "offset": 0,
            "slot": "5",
            "type": "t_uint256"
          },
          {
            "astId": 5348,
            "contract": "contracts/OpWiz/OpWizFlashExercise.sol:OpWizFlashExercise",
            "label": "amountOfCA",
            "offset": 0,
            "slot": "6",
            "type": "t_uint256"
          },
          {
            "astId": 5350,
            "contract": "contracts/OpWiz/OpWizFlashExercise.sol:OpWizFlashExercise",
            "label": "premiumAmount",
            "offset": 0,
            "slot": "7",
            "type": "t_uint256"
          }
        ],
        "numberOfBytes": "256"
      },
      "t_struct(OptionDetails)5368_storage": {
        "encoding": "inplace",
        "label": "struct IOpWizSimple.OptionDetails",
        "members": [
          {
            "astId": 5353,
            "contract": "contracts/OpWiz/OpWizFlashExercise.sol:OpWizFlashExercise",
            "label": "listAsset",
            "offset": 0,
            "slot": "0",
            "type": "t_address"
          },
          {
            "astId": 5355,
            "contract": "contracts/OpWiz/OpWizFlashExercise.sol:OpWizFlashExercise",
            "label": "priceFeedAddress",
            "offset": 0,
            "slot": "1",
            "type": "t_address"
          },
          {
            "astId": 5357,
            "contract": "contracts/OpWiz/OpWizFlashExercise.sol:OpWizFlashExercise",
            "label": "poolAddress",
            "offset": 0,
            "slot": "2",
            "type": "t_address"
          },
          {
            "astId": 5359,
            "contract": "contracts/OpWiz/OpWizFlashExercise.sol:OpWizFlashExercise",
            "label": "offerEnd",
            "offset": 0,
            "slot": "3",
            "type": "t_uint256"
          },
          {
            "astId": 5361,
            "contract": "contracts/OpWiz/OpWizFlashExercise.sol:OpWizFlashExercise",
            "label": "optionExpiry",
            "offset": 0,
            "slot": "4",
            "type": "t_uint256"
          },
          {
            "astId": 5363,
            "contract": "contracts/OpWiz/OpWizFlashExercise.sol:OpWizFlashExercise",
            "label": "listAmount",
            "offset": 0,
            "slot": "5",
            "type": "t_uint256"
          },
          {
            "astId": 5365,
            "contract": "contracts/OpWiz/OpWizFlashExercise.sol:OpWizFlashExercise",
            "label": "isListed",
            "offset": 0,
            "slot": "6",
            "type": "t_bool"
          },
          {
            "astId": 5367,
            "contract": "contracts/OpWiz/OpWizFlashExercise.sol:OpWizFlashExercise",
            "label": "exercised",
            "offset": 1,
            "slot": "6",
            "type": "t_bool"
          }
        ],
        "numberOfBytes": "224"
      },
      "t_uint256": {
        "encoding": "inplace",
        "label": "uint256",
        "numberOfBytes": "32"
      }
    }
  }
}